:020000040000FA
:10000000980D0120251A00002D1A00002F1A00005B
:10001000311A0000331A0000351A000000000000F9
:10002000000000000000000000000000371A00007F
:10003000391A0000000000003B1A00003D1A0000C1
:10004000DD2E01003F1A0000B9800100916001001F
:10005000A56001003F1A000051C800003F1A0000CF
:10006000A18001003F1A00003F1A00006D4D010001
:100070003F1A00003F1A00003F1A00003F1A00001C
:100080003F1A0000814D01003F1A00003F1A000096
:10009000B96001003F1A00003F1A00003F1A00003B
:1000A0003F1A00003F1A00003F1A00003F1A0000EC
:1000B0003F1A00003F1A000000000000000000008E
:1000C0003F1A00003F1A00003F1A00003F1A0000CC
:1000D0003F1A00003F1A00003F1A00003F1A0000BC
:1000E0003F1A00003F1A00003F1A00000000000005
:1000F000000000003F1A0000000000003F1A00004E
:1001000000000000000000000000000000000000EF
:1001100000000000000000000000000000000000DF
:1001200000000000000000000000000000000000CF
:1001300000000000000000000000000000000000BF
:1001400000000000000000000000000000000000AF
:10015000000000000000000000000000000000009F
:10016000000000000000000000000000000000008F
:10017000000000000000000000000000000000007F
:10018000000000000000000000000000000000006F
:10019000000000000000000000000000000000005F
:1001A000000000000000000000000000000000004F
:1001B000000000000000000000000000000000003F
:1001C000000000000000000000000000000000002F
:1001D000000000000000000000000000000000001F
:1001E000000000000000000000000000000000000F
:1001F00000000000000000000000000000000000FF
:10020000DFF810D002F0C6F800480047F54B0300B5
:10021000AFF30080980D01202DE9F043904E054684
:1002200087B03068894600287ED0D5E900788D4AAD
:1002300000234146384601F007FC06F168040C35FE
:10024000C4E90C7895E80E0068361C350EC695E8B2
:100250000E0086E80E00183504F11801B5E88C1080
:1002600081E88C1095ED030A84ED0A0A95ED1B0ACE
:1002700084ED0B0A95ED060AB8EEC00A84ED0E0A6D
:1002800095ED070AB8EEC00A84ED0F0A9FED760AD5
:10029000002184ED100AC4E91E0195ED0A0B743E9D
:1002A00084ED120B95ED0C0B84ED140BA86B6834E8
:1002B000503D01F0D4FE44E9040195ED230A6A465D
:1002C00004ED010A95ED240A84ED000A95ED250A56
:1002D00084ED010A95ED260A84ED020A95ED270AC0
:1002E00004ED020AD5E93201C4E9080100F0B3FACD
:1002F000BDF80200A076BDF80400E076BDF8060067
:100300002077BDF80800607795F8AC00207695F866
:10031000A8006076683C039495ED340AB8EE400A74
:100320008DED050AB08900E009E0ADF810004A46FD
:1003300003A9306824F0A0FB07B0BDE8F0834FF0BC
:10034000FF30F9E72DE9F0430446454887B05830BF
:10035000007AC007F0D05C21444801F026FC4349F4
:100360002046FFF759FF061EE6DD404FDFF80091FB
:1003700097F800807D78A5B300241821684601F025
:1003800014FC69074FF0010001D501240290A90671
:1003900001D5641C0590A90704D5396C0090641C34
:1003A0004968019115F0180206D00221120700D504
:1003B0000121CDE90301641C680607D52B49032000
:1003C00020F022FE014648461EF00AFA4CB1C7F85A
:1003D00058D026490C2020F017FE014648461EF052
:1003E000FFF9B8F1110F20D2DFE808F01F09090961
:1003F00009092121242727092A2D303336001848DE
:100400004FF47A71C06890FBF1F04843884203D002
:10041000A0F5D851583908D11449012020F0F4FD35
:10042000010002D048461EF0DBF9304684E70F4950
:100430000220F3E70D490320F0E738F0A7FCF4E7CA
:100440000A490520EAE709490620E7E707490920A4
:10045000E4E706490A20E1E704490B20DEE7000053
:100460000007002040420F0000000000982C0020F0
:100470000010000130B51A498BB0097AC90725D0A0
:1004800017496C4608390D68FDB1002107910891A4
:1004900009910A9100F10C010DF11C0C0EC98CE8B8
:1004A0000E0090ED340A1C212046B8EE400A8DED76
:1004B0000A0A01F07AFB224607A9284629F002FB26
:1004C00000280ADD0098022803D006E000200BB0C7
:1004D00030BD694603481EF083F90120F7E70000AC
:1004E000000800200210000170B516498AB0097A90
:1004F000C90724D0134906AA08390B68E3B10021C3
:1005000000F10C04009101910291039170CC8DE8EF
:10051000700090ED340A1846B8EE400A8DED030ADB
:1005200006910791089169462CF0DCFF002803DD55
:1005300006A905481EF054F901200AB070BD00203C
:10054000FBE7000014080020041000010EB5184954
:10055000097AC9070AD0694600F00AF8002803DDC5
:10056000694614481EF03CF901200EBD00200EBD66
:100570003EB50F4A121F13688BB100F10C0234CA4A
:100580008DE8340090ED340A0A466946B8EE400A18
:1005900018462AF0EFFE002808DD01203EBD4FF08E
:1005A000FF335B22044905483BF0A6FC00203EBD1A
:1005B000240800200310000153020400ECDD0100B8
:1005C000F0B52F4E044687B0306817460D46C0B1CF
:1005D0001821684601F0E9FA00EE105A04F10C0007
:1005E000B8EEC00A8DED050A07C88DE8070094ED46
:1005F000170A8DED040ABDEEC00A10EE100A20B1F4
:1006000007E04FF0FF3007B0F0BD9FED1E0A8DED03
:10061000040A94ED2A0A10213846B8EEC00A8DED7E
:10062000030A01F0C2FA3A466946306825F02CFE0A
:10063000E9E77FB5054612480830007AC0071CD0AC
:10064000D5F8D01043F2C820814201D26A460AE0B0
:1006500042F210710C466A462846FFF7B1FF0028A7
:1006600006DC6A4621462846FFF7AAFF002803DD7C
:10067000694605481EF0B4F8012004B070BD0000C2
:100680003008002000407D440110000170B5044690
:10069000164888B0007AC00725D0144806AE103836
:1006A0000568FDB11821684601F07FFA04F10C00DD
:1006B00007C88DE8070094ED340A3246B8EE400AC8
:1006C0008DED030AD4E90001CDE904010020069074
:1006D0006946284623F0B2FE002803DD06A9044837
:1006E0001EF07EF8012008B070BD000090080020C8
:1006F00005100001F0B5584C3C25B0FBF4F304FBA9
:100700001303B0FBF4F0B3FBF5F60024146054605F
:1007100005FB1636946056814FF46166B3FBF6F71D
:1007200006FB1737B7FBF5F5B3FBF6F31581D3805E
:100730004A4B40F2B2711D69854206D198881080FB
:100740001889908098895080F0BD64254FF4B77E59
:1007500040F26D16AF00186115E000BF5FEA817CC2
:100760000DD191FBF5FC05FB1C1CBCF1000F0ED15B
:1007700091FBF7FC07FB1C1CBCF1000F07D0B44633
:10078000A0EB0C00491C5FEA817C02D00FE0F4462C
:10079000F6E791FBF5FC05FB1C1CBCF1000F10D12A
:1007A00091FBF7FC07FB1C1CBCF1000F09D0B44601
:1007B0008445D3D91FFA81FCA2F800C05480284E8A
:1007C00020E0F446F4E700BF5FEA817E0DD191FBA3
:1007D000F5FE05FB1E1EBEF1000F16D191FBF7FEC4
:1007E00007FB1E1EBEF1000F0FD04FF0000E00BF22
:1007F0000EEB4E0E06EB0E1E5EF824E0641CA0EB22
:100800000E0054808C0703D00CE04FF0010EEFE790
:1008100091FBF5F405FB1414DCB991FBF7F407FB2D
:100820001414B4B15FF0000404EB440406EB041E9E
:1008300054885EF824E08645C6D9A1B2491C89B225
:10084000401C518080B29080C3F804C0C3E902010B
:10085000F0BD0124E8E74DE780510100D0080020F9
:10086000600204002DE9F047804689469A46144606
:100870005821104601F099F9F84F04F1080307F1E7
:10088000580007C883E8070018461DF09BF807F1D9
:1008900058054FF07E56E868B04218D195ED000A31
:1008A000D5ED040A30EE200A84ED050A95ED010A23
:1008B000D5ED050A30EE200A84ED060A95ED020A10
:1008C000D5ED060A30EE200A84ED070A06E0583717
:1008D00004F1140397E8070083E8070004F114000B
:1008E0001DF070F8E869B04203D195ED080A84ED77
:1008F000080A0120C4E9000AC4E912892046BDE8BB
:10090000F04700F0DDBD70B5D54D002303EB830447
:1009100005EB840431B1012902D002290AD103E098
:10092000666802E0266800E0A668864202D10120DF
:10093000146070BD5B1C0B2BE8D34FF0FF3070BD13
:100940002DE9F0410E46DDE90641074615462046F1
:1009500001F02BF936B3012E22D12846012F64D0A5
:10096000B7EE000A022F2AD0032F38D0042F5FD011
:100970000B2F5AD00C2F5BD0152F5CD0162F6BD0BD
:10098000172F7BD01F2F75D0202F09D1002E72D0AA
:10099000012E05D1016821604068A06084ED010A44
:1009A000BDE8F0812046D9E795E80E0080E80E000A
:1009B000F6E7012EF4D107C884E80700F0E746B156
:1009C000012EEDD190E80E0084E80E00C068206290
:1009D00014E095E80E0080E80E00296A3AE086B13E
:1009E000012EDDD10EC884E80E000EC804F11005FA
:1009F00085E80E000068206284ED030A84ED070A92
:100A0000CEE795E80E000EC005F110010EC90EC02C
:100A1000296A47E095E80E000EC02DE0012EBFD1F7
:100A20000EC884E80E0007C81CE0002EC1D1BBE749
:100A3000002EF3D1EEE746B1012EB1D190E80E00C1
:100A400084E80E00C068E060AAE795E80E0080E840
:100A50000E00E968C160A3E776B1012EA0D107C8F6
:100A6000BFEE000A04F1100383E8070084ED030AD7
:100A700096E703E00FE017E0103595E736B1012E59
:100A80008ED10EC80EC402C802C494E70ECD0EC0AB
:100A900002CD02C088E726B1012E81D10068206016
:100AA0007EE7296801607BE729680160A9684160E9
:100AB00076E72DE9FC410E4615460746002100F079
:100AC0001DFB411C0AD0674951F8204034B1D4E9DC
:100AD0000501814205DB394663A020E00020BDE826
:100AE000FC81A06830B92A46314620462EF07EFEB1
:100AF000A06890B10146A2692069E76802FB001175
:100B0000CDE9001032462B4600213846FFF718FF8A
:100B1000A069401CA0610120E1E739465DA03BF0DF
:100B2000EBF9DBE72DE9FC5F9A464E4BDDF834E04C
:100B300093461E683EB3B2692AB3441C23D053F8CF
:100B4000205005B3A86900281DDD00EE102A0024FE
:100B5000F8EEC00A00EE100AB8EEC01A80EE810A64
:100B600015E000BF00EE904AF8EEE00A60EE200AC1
:100B7000FDEEE00A10EE903A5B1E8B4206D1641E39
:100B800001D3A04206DC0020BDE8FC9F641C844227
:100B9000E8DDF8E75FEA0E001BD0D6E90A30521E06
:100BA000A2FB037CD6E90898D61706FB03C602FB16
:100BB0000066B9EB070268EB0608A3FB016C00FBBB
:100BC00001C0CF1703FB0700B11840EB0800CEE9C6
:100BD0000010BAF1000F18D0214E3C3E306928B900
:100BE00040203BF0D9F930610028CDD02B69A868AE
:100BF000316903FB0402E8684024CDE900140121B7
:100C0000FFF79EFE3169CAF800100C9808B1402128
:100C10000160BBF1000F01D0CBF800500120B3E719
:100C20002DE9F04700251F4691468A464FF00108FE
:100C30002E460A286DD2DFE800F005090D3B3E4143
:100C400045494D69054D2424583546E0034D1C2483
:100C50007C3542E0034D1C24803D3EE060250020B1
:100C6000A801002078260020464154414C204552DE
:100C7000524F523A202564207261746520697320B6
:100C8000686967686572207468616E206163630AD1
:100C900000000000464154414C204552524F523A08
:100CA000202564206669666F5F657272310A0000F4
:100CB0000C24F94D11E00424F84D0EE0F64D1024FB
:100CC0000C350AE0F44E48241C3606E0F34D0424AB
:100CD0002D1D02E0F14D04240835BC420ADD1DB192
:100CE0002146284600F061FF1EB12146304600F043
:100CF0005CFF3C4625B122465146284600F03CFFA9
:100D000026B122464946304600F036FF4046BDE84F
:100D1000F0874FF00008F9E7F8B51F460D46DDE90A
:100D200006131646044600223846FFF779FF6A4646
:100D300001213846FFF7E7FD401C08D000980769FD
:100D4000002F04D00023324620462946B847F8BD7C
:100D50002DE9F043D24893B008AC0EC884E80E00E9
:100D600007C80DAB83E80700CB4864300468ECB3D8
:100D7000D4E90610884257DA0DF1200806AE02AF1A
:100D80008146002503AB58F82500CDE900760CAA72
:100D90004946FFF7C7FED8B10C98D0E90C23DDE92E
:100DA0000601821A71EB03020AD3DDE90232CDE9B2
:100DB00000230DAA52F82530B74AB43AFFF7ACFF2A
:100DC000DDE906120C98C0E90C12C169491CC16129
:100DD0006D1C032DD6D3CDE90076002003AB0CAA01
:100DE0004946FFF79FFED8B10C9800E01CE0D0E91F
:100DF0000C23DDE90601821A71EB030208D3DDE959
:100E00000232CDE90023A44A0023B43AFFF784FF5D
:100E1000DDE906120C98C0E90C12C169491CC161D8
:100E2000D4E906108842ABDB2EF044FD13B0BDE8D8
:100E3000F08370B50D46002410B1012807D010E0F2
:100E4000022000F013FB00B101242CB909E01020AE
:100E500000F00CFB28B1022428463BF001F800B159
:100E60000024204670BD2DE9FF4FADF5077D1546E6
:100E70000446DDF850A200F0EFFA8046894621468C
:100E80005046FFF7D6FF07004FF000004AD0889E7B
:100E90004390429042AA43A901203AF0AFFF429802
:100EA00008B9102042904FF0060B062C0DD165B109
:100EB000439808B9CDF80CB10A20DDE94212009040
:100EC00002AB28462EF0D8F812E08EB1202000F0B8
:100ED000CDFA18B15846CDF80CB103E0439808B9E3
:100EE00003204390024602AB304642992FF04EF861
:100EF00002AB6CA144A8439A18F098FD6C4A0023F9
:100F00004046494600F0D1FD44A9644ECDE90010A9
:100F10002C3E3B46224667A0716A3AF0EDFF706AAC
:100F2000401C706200F0C7FA00280DD0BAF1000F23
:100F300003D0BAF1010F02D00AE0042000E0102033
:100F400000F09CFA20B100200DF50B7DBDE8F08F7C
:100F50002046002100F0D2F84F49421C01F1640103
:100F60000DD051F8200050B1006840B120468A9A57
:100F70008899FFF79EFDF0B94FF0FF30E4E709686C
:100F80002046E9B1002100F0B9F8401C18D04349CF
:100F900002202C390968CDE902010020CDE90000CA
:100FA0000246034620462EF09FFC20468A9A8899E6
:100FB000FFF77FFD08B10220C6E76FF00100C3E72D
:100FC0002A4620468A9B8899FFF72AFE08B101200D
:100FD000BAE76FF00200B7E738B500210468009166
:100FE00000F14802011D50232046FFF73CFF012875
:100FF00003D0002800DB002038BD092C0ED020468D
:101000006A460121FFF77FFC401CF4D0009800687D
:10101000411CF0D0012138F053FDECE70A2034F0F8
:1010200087FAE8E7F8B5064600F016FA04460D46DA
:101030006A4600213046FFF766FC401C09D0009844
:101040000669002E05D0144A0023B43A20462946EA
:10105000B047F8BD10B50124204600F045F810B1A6
:101060002046FFF7DFFF641C0B2CF5DB002000F0AF
:101070003BF810B10020FFF7D5FF084900202C39BC
:10108000886310BD10B501F6FD71B1F5483123D06C
:10109000012927D123E00000142600209801002018
:1010A0002CF003006466442A256428257329000077
:1010B00040420F005441473D43534920534E282599
:1010C0006429535428256429495428256429257303
:1010D0005453282564290000FFF73AFE02E0104629
:1010E000FFF7A0FF002010BD012181400C48806B5C
:1010F000014201D0012070470020704738B50C46EE
:101100006A460121FFF7FFFB401C06D014B100988E
:10111000C06820600098806838BD4FF0FF3038BD4F
:101120006C01002008460968032901D0022901D179
:1011300034F0CCBA70472DE9F041604CE06900BB57
:1011400000F08AF94FF47A72002300F07DFC32221D
:10115000002300F079FC1046194600F006FF00EE6F
:10116000100A9FED571AC0EE010AB7EE000A30EEE2
:10117000800ADFED540A20EE200ABCEEC00A84ED9E
:10118000070AA06B0025504F00680326012812D0E3
:1011900002280ED100F060F93A46002300F054FC1A
:1011A000E269C2EB02121201101A8D4101D2A06B4A
:1011B0000660BDE8F08100F04FF93A46002300F0E8
:1011C00043FCE2699200EFE770B500F045F905468F
:1011D0000E46082000F04AF9384C68B13A4A00231C
:1011E0002846314600F030FC024638A0216A3AF029
:1011F00083FE206A401C2062606A08B1002070BD36
:10120000012000256062FFF796FFA06B00680328AD
:1012100005D0012000F04AF93CF0ECFF07E0002087
:1012200000F044F907E000BF00F0D1F8054300F0FA
:1012300008F90028F8D100206062284670BD2DE929
:10124000F041074600F008F905460E46082000F078
:101250000DF91A4C70B11C4A00232846314600F0A3
:10126000F3FB03463A461FA0A16A3AF045FEA06A86
:10127000401CA062E06A08B100209AE70120E06209
:10128000FFF759FFA06B0068032812D0012000F07F
:101290000DF9012000F032F9FFF7DCFE3A4628464E
:1012A000314600F021F9002000F028F90020E0622A
:1012B0007FE7002000F0FAF8F8E70000880200203D
:1012C0000000C84200BA5B4A40420F005441473D0B
:1012D0004D505220534E2825642954532825642903
:1012E000000000005441473D4D50523220534E28DB
:1012F0002564294449542825642954532825642900
:101300000000000000B5094A08680B7997B0105C2E
:1013100001229A40104206D05822684600F02CFC68
:10132000684613F089FA17B000BD00004827002076
:101330004448006800F010BA424810B50068002820
:1013400009D0404800F0EBF9044601463D48001D35
:1013500000F0D4F9606810BDFEB53A4C0090CDE9BC
:1013600001120746606815460E4668B1201D00F060
:10137000D6F9010012D048680760C0E9016520462F
:1013800000F0BCF90120FEBD6A460C21206820F067
:10139000DFFE21680029F5D12060F3E70020FEBDC3
:1013A0002949C0F3072001EB00107047D4E770B55E
:1013B00014460D460646FFF7BFFF002806D0016819
:1013C00031608168216040682860012070BD2DE98E
:1013D000F0418AB000252C466A4603A902A8009570
:1013E000FFF7E5FF60B10098010C00D000200090ED
:1013F00050B1FFF7D5FFDDE90212836898471EE080
:1014000020460AB0BDE8F081DDE9026080460E4862
:10141000CDE9065610380D4F80680D4A06A900F038
:1014200089F9040001D12846EBE765684246304659
:101430002968B847246814B16868B042F5D0012023
:10144000DFE775E768030020D8270020E1160200D7
:101450001F100300044870470348006900B10047AB
:101460000020014670470000182A0020134909682F
:10147000014201D001207047002070470F494968A0
:10148000014201D001207047002070470B49896854
:10149000014201D001207047002070470749C96808
:1014A000014201D00120704700207047034900B17C
:1014B0000120C86170470148C06970477C03002063
:1014C00070B506460748D0E9004506E06268314637
:1014D00090685268904724686D1E0CB1002DF5D1BC
:1014E000002070BDA00300207A4BC3E90001A3F1E6
:1014F000400011464068C36876481847754940392E
:10150000086370472DE9F041724E0C46403E054697
:10151000D6E90E120020034651EA020708D0681AE5
:1015200064EB02014FF47A72002300F08DFA0B464F
:101530000022C6E90E541146121A994105DA0246F4
:1015400028462146BDE8F041CEE7BDE8F08170B500
:101550000C46C06800F0B8F8002827D06068002862
:1015600024D121685B4D0B2953D020DCA5F140002C
:1015700006293FD00EDC012928D0022916D1C16AE4
:10158000002913D00021C16253480068BDE87040B3
:1015900022F074BC082932D00A2907D194ED020A3E
:1015A00085ED170A94ED030A85ED180A70BD0F2921
:1015B00034D01E294BD01F297FD02129F6D194ED9C
:1015C000030ABDEEC00A85ED2B0A70BD08344C300D
:1015D0000ECC0EC00ECC0EC094ED000A203C85ED62
:1015E000090A50F8340C0028EFD1D4E91201BDE803
:1015F000704087E7083468300ECC0EC004E03548F0
:10160000403008342ECC2EC094E80E0080E80E0046
:1016100070BD94ED020A85ED190A70BD94ED020AC1
:10162000BDEEC00A85ED1A0A94ED030ABDEEC00AAC
:1016300085ED1B0A94ED040ABDEEC00A85ED1C0A77
:1016400094ED050ABDEEC00A85ED1D0A70BD94ED4E
:10165000030AD4ED040A30EE200A10EE100A00F05E
:10166000FEFCE5E91E0194ED050AD4ED060A30EE14
:10167000200A10EE100A00F0F2FCC5E9020194ED18
:10168000070A85ED040A94ED080A85ED050A94ED34
:10169000090A85ED060A94ED0A0A85ED070A94ED1C
:1016A0000B0A85ED080A94ED0C0A85ED090A94ED04
:1016B0000D0A85ED0A0A70BDFFE794ED020ABDEE42
:1016C000C00A85ED2A0AF6E7007D002800D0012037
:1016D0007047000020040020CCF7030000B5086824
:1016E00091B04C2805D1096D034B6A4600201DF0CE
:1016F000CFFC11B000BD00002DF0010018B111B1F8
:1017000002681AB105E04FF0FF307047016004E055
:10171000024610680028FBD11160002070470100CC
:1017200006D0086820B102680A6000210160704795
:101730000020704770B5154604000E4606D02EB145
:1017400025B16068A84718B1204670BD002070BD63
:101750002A4631462068EEE700B5002803D000682D
:10176000FFF7FAFF401C00BD7CB50446C0F8D0105E
:101770008160D4E90001434A002300F065F92EF0AE
:1017800049FEC4E9320120461DF02AFB3E4E307A64
:101790008008C00702D020461CF0DEFF94ED190A35
:1017A000B5EEC00AF1EE10FA1CD3B5EEC00AF1EEA8
:1017B00010FA17DC94ED090AB5EEC00AF1EE10FA42
:1017C00010D3B5EEC00AF1EE10FA0BDC94ED180A56
:1017D000B5EEC00AF1EE10FA04D3B5EEC00AF1EE90
:1017E00010FA01DD84ED2F0A206F002804DD616FFF
:1017F000002901DD00F04AF804F1B802111FA06EC3
:1018000000F06FF8204D283D78B100200190D4F809
:10181000B4000090D4F8B8000190E8686A4640F23D
:10182000EB7143686FF0004098472869C168204613
:10183000884720461DF034F910B3307AC008C0073D
:1018400002D020461DF07CF92868C16820468847F0
:101850006868C16820468847A868C16820468847EC
:10186000E868C168204688476869C168204688479B
:10187000A869C16820468847E869C168204688474A
:1018800001207CBD40420F00700600202B4A00233F
:101890009360D360A0F11E03BE2B00D85061A1F16C
:1018A0001E00BE2800D89161704770B5234CE568D2
:1018B000A36923B12E0001D0AB4200DA1D46666950
:1018C000A3681EB19E4206DD334604E01AB92269C0
:1018D0009A4200DD134600B10360002900D00D607C
:1018E00070BD70B50E46A0F11E01144C1546BE2900
:1018F00010D8A168002900DCA060E168002900DCA4
:10190000E060A168884201DDA06003E0E1688842F0
:1019100000DAE060002229463046FFF7C6FF306853
:101920002168884203D129686268914204D020600E
:1019300028686060012070BD002070BD4408002050
:1019400030B4044654E8000F0D4644E80053002B21
:10195000F8D1156030BC704730B4044654E8000F2D
:1019600040EA010544E80053002BF7D1156030BC74
:10197000704730B4044654E8000F00EA010544E81B
:101980000053002BF7D1156030BC704730B40446CB
:1019900054E8000F80EA010544E80053002BF7D11A
:1019A000156030BC704730B4044654E8000F00EBBB
:1019B000010544E80053002BF7D1156030BC704797
:1019C00030B4044654E8000FA0EB010544E800538E
:1019D000002BF7D1156030BC704770B404464FF04F
:1019E000000054E8006F0D68AE4207BF44E80023D2
:1019F000012044E800630E60002B1CBF0020F0E7CC
:101A000070BC704730B4044654E8000F88422CBFC5
:101A1000451A054644E80053002BF5D1156030BC4B
:101A2000704700000648804706480047FEE7FEE78B
:101A3000FEE7FEE7FEE7FEE7FEE7FEE7FEE7FEE77E
:101A4000717E0100010200002DE9F05F05460020D3
:101A500092469B4688460646814640241BE028461F
:101A600041464746224600F060F853465A46C01A9F
:101A7000914110D311461846224600F047F82D1A1E
:101A800067EB01084F4622460120002100F03EF896
:101A900017EB00094E41201EA4F10104DFDC48468B
:101AA00031462A464346BDE8F09F2DE9F041002427
:101AB000061B254671F1000605DA01240027D0EB4C
:101AC000070067EB0101161E73F1000605DA002717
:101AD000D2EB0702012567EB0303FFF7B5FF86464C
:101AE0000E4617469C46AC4204D00025D0EB050EAE
:101AF00065EB010624B10020D2EB000760EB030C7C
:101B0000704631463A466346BDE8F081202A04DB40
:101B1000203A00FA02F1002070479140C2F1200300
:101B200020FA03F3194390407047202A04DB203A3F
:101B300021FA02F00021704721FA02F3D040C2F1ED
:101B40002002914008431946704700000048704742
:101B5000042504000649074A0868504343F2390245
:101B60001044086040087047014908607047000051
:101B7000200900206D4EC64140EA01039B0703D0B7
:101B800009E008C9121F08C0042AFAD203E011F8BC
:101B9000013B00F8013B521EF9D27047D2B201E07E
:101BA00000F8012B491EFBD270470022F6E710B562
:101BB00013460A4604461946FFF7F0FF204610BDBB
:101BC000421E12F8013F002BFBD111F8013B02F835
:101BD000013B002BF9D1704710B5044604E00B78A7
:101BE00000F8013B03B1491C521EF8D2204610BD3B
:101BF000CAB2401E10F8011F8A4202D00029F9D152
:101C000000207047421C10F8011B0029FBD1801AEC
:101C1000704710B5002200E0521C835C8C5CA3422C
:101C200001D1002BF8D1D8B2E1B2401A10BD30B5C5
:101C300004460020034600E05B1C934203D2E05CB4
:101C4000CD5C401BF8D030BD034611F8012B00F8E5
:101C5000012B002AF9D1184670472DE9FE4F804626
:101C600081EA0300C00F0C46009021F0004123F0F0
:101C70000045B8EB0200A94105D2404621469046F6
:101C80001C460B46024623F00040104347D0270D68
:101C9000C7F30A00C3F30A510290401A019040288A
:101CA0006BDAC3F3130040F4801B0098924620B116
:101CB0000023D2EB030A63EB0B0B01985946C0F1EA
:101CC00040025046FFF722FF06460D465046594651
:101CD000019A00F039FA10EB08006141002487EA0C
:101CE000115284EAE7731A4340D0009A62B3019A12
:101CF000012A4FEA075215DC001B61EB02014FF08D
:101D0000004202EA0752CDE90042001C41F5801171
:101D100032462B4600F070FA03B0BDE8F08F404623
:101D20002146F9E7001B61EB0201001C41F580131D
:101D300000185B412018A2F5001747EB030140EAA9
:101D4000D570B6196D4111E06D084FEA360645EAC7
:101D5000C0754FEA0752001B61EB0201001C41F500
:101D6000801149084FEA30000019514132462B4694
:101D700003B0BDE8F04F00F030BA009801224000F7
:101D80000023D0EB020263EBE073009821464FEA98
:101D9000E074B8EB000061EB0401E9E783F0004375
:101DA0005BE781F0004158E72DE9FE4F81EA03042B
:101DB00004F0004421F0004100944FF0000B23F0A8
:101DC000004350EA01045ED052EA03045BD0C3F33F
:101DD0000A54C1F30A552C44A4F2F3340194A0FB35
:101DE0000254C1F3130141F48011C3F3130343F40C
:101DF000801301FB024400FB034E840A970A44EA65
:101E0000815447EA8357A4FB076802958D0A05FBB6
:101E100007854FEA932C04FB0C542705029D4FEADB
:101E2000065847EA1637B5EB08056EEB070C870E28
:101E3000920E47EA811742EA8312A7FB0201B6EB32
:101E40000B0164EB00042B0D43EA0C335E1844EBEA
:101E50001C50DA465146E7FB0201C5F313044FEA72
:101E60000B3343EA14534FEA0432019C43EA06035E
:101E7000A4F10C040294009CCDE900B400F0BCF97C
:101E800003B0BDE8F08F00200146F9E72DE9F04DE1
:101E900081EA030404F0004B21F0004514464FF0A2
:101EA000000A23F0004150EA050220D054EA010262
:101EB0001DD0C5F30A570246C5F31303C1F313003F
:101EC000C1F30A5640F4801543F48013A7EB0608CB
:101ED000101BD64608F2FD3873EB050002D308F15B
:101EE000010801E092185B41B8F1000F03DA00200D
:101EF0000146BDE8F08D00204FF48011064684466F
:101F00000EE0171B73EB050705D3121B63EB0503EC
:101F100006434CEA010C49084FEA300092185B4135
:101F200050EA0107EDD152EA030012D082EA040020
:101F300083EA0501084305D0101BAB4106D20122FC
:101F4000002306E000224FF0004302E06FF00102A0
:101F500053101AEB06004CEB085110EB0A0041EB52
:101F60000B01BDE8F04D00F038B930B404469623BB
:101F70000800214604D0B62330BC002200F0FFB890
:101F800020460021F8E70EB5C10F80EAE070084452
:101F9000CA07002140F233438DE80E000A460B4683
:101FA00000F02AF903B000BD0EB540F233410291B2
:101FB0000021CDE900110A460B4600F01DF903B0DF
:101FC00000BD20F00040C20DC0F3160040F4000038
:101FD0007F2A02DA0020014670470021962A03DC9E
:101FE000C2F19602D0407047963AFFF78FBD70B5A8
:101FF000C1F30A5201F000450024C1F3130140F27D
:10200000FF3341F480119A4201DA002070BD40F2A2
:1020100033439A42A2F2334203DC5242FFF785FD7A
:1020200000E090402C43F1D0404270BDC1F30A5211
:1020300010B5C1F3130140F2FF3341F480119A420D
:1020400001DA002010BD40F233439A42A2F233423B
:1020500003DC5242FFF769FD10BD904010BD00F057
:10206000004230F000400AD0C10D01F56071C0F3AC
:10207000160042EA0151C208400711437047002090
:102080000146704730B5041E71F1000404DB4FF0C7
:102090000044404264EB0101141E73F1000405DBAF
:1020A0001C464FF00043524263EB04038B4208BFCF
:1020B000824230BD30B5041E71F1000404DB4FF0E4
:1020C0000044404264EB0101141E73F1000405DB7F
:1020D0001C464FF00043524263EB0403994208BF91
:1020E000904230BD01F0004330B421F0004150EA8D
:1020F000010206D00A0DA2F56072C1F31301002A95
:1021000002DC30BC00207047440F44EAC104C10027
:10211000E01830BC00EBC25000F028B830B50B46D8
:10212000014600202022012409E021FA02F59D4207
:1021300005D303FA02F5491B04FA02F52844151EDB
:10214000A2F10102F1DC30BD202A06DBCB17203AD8
:1021500041FA02F043EAE07306E041FA02F3D040AC
:10216000C2F1200291400843194670470029A8BFD8
:102170007047401C490008BF20F00100704710B4B0
:10218000B0FA80FC00FA0CF050EA010404BF10BC65
:10219000704749B1CCF1200421FA04F411FA0CF192
:1021A00018BF012121430843A3EB0C01CB1D4FEACB
:1021B00000614FEA102042BF002010BC704700EBC6
:1021C000C35010440029A4BF10BC7047401C4900F4
:1021D00008BF20F0010010BC704710B5141E73F149
:1021E000000408DA401C41F1000192185B411A43D7
:1021F00001D120F0010010BD2DE9F04D92469B4623
:1022000011B1B1FA81F202E0B0FA80F220329046C8
:10221000FFF77CFC04460F4640EA0A0041EA0B0146
:1022200053465A46084313D0114653EA010019D0C9
:10223000C8F140025046FFF778FC05460E4650466E
:1022400059464246FFF762FC084305D0012004E0EE
:1022500020463946BDE8F08D0020054346EAE07689
:102260002C4337430A986305E40AA0EB08000022D8
:10227000FD0A44EA47540A3002D500200146E9E746
:10228000010510196941DDE9084500196941BDE8FA
:10229000F04DA2E770B521F0004303430CD0C1F329
:1022A0000A550024D5EB040564EB0403D617AD1AD8
:1022B000B34102DB0020014670BD201841EB025102
:1022C00070BD2DE9F04D00231A461B1A8A4103DB2D
:1022D00000200146BDE8F08DC1F30A52C1F313019D
:1022E00041F480154FF0000BD10702D100186D4169
:1022F000521E0027044640F2FF11384601EB620AE5
:102300003E468046024600204FF48011FFF70DFC48
:10231000C2197141BB1846EB0100B4EB030C75EB1D
:10232000000C04D3E41A65EB000517460E46241989
:1023300008F101006D4180463428E3DDF91946EBD0
:102340000600091BA84103D24FF0FF32134601E0FB
:10235000002213461BEB070046EB0A51BDE8F04D87
:10236000FFF73BBFC1F30A52C1F3130140F2FF3341
:1023700041F480119A4202DA00200146704740F28F
:1023800033439A42A2F2334202DC5242FFF7CDBB02
:10239000FFF7BCBB064C074D06E0E06840F00103C8
:1023A00094E8070098471034AC42F6D3FDF72CFFB1
:1023B000F82C0400182D040070B58C1810F8015B7F
:1023C00015F0070301D110F8013B2A1106D110F8CE
:1023D000012B03E010F8016B01F8016B5B1EF9D1D2
:1023E0002B0705D40023521E0DD401F8013BFAE758
:1023F00010F8013BCB1A921C03E013F8015B01F8C3
:10240000015B521EF9D5A142D8D3002070BD000057
:102410002DE9F041054608880E464FF0FF34142898
:1024200011D11648A860042039F0B6FDE86050B11B
:1024300000210160E8683168114A016029461148AD
:102440000FF026FC10B12046BDE8F0810E4F0024AD
:10245000A7F1780804EB440108EB810207EB0413B1
:102460007188284637F060FA10B16FF00300EBE78F
:10247000641C0A2CEED30020E6E700006D7E01000C
:10248000DD160000A805002018FA030081684068E6
:10249000081A001DC11700EB917121F00301401AC9
:1024A000704710B506201DF07BFD002010BDF0B573
:1024B000002381F84A31B0F8646003227400B4FB51
:1024C000F2FC90F86A700125BC4502D281F84A51AD
:1024D0002CE0B4FBF2FC90F869E0F44501D2022054
:1024E00022E0B4FBF2F490F868C0644518D20424EA
:1024F00081F84A4190F868406600B6FBF2F790F820
:102500006E60B74202D290F8717037B9B4FBF2F442
:10251000B4420BD990F8710040B981F84A2105E026
:10252000B7EB960F02D2052081F84A0191F84A01D3
:1025300091F85140A04201D1012200E0002210FB9D
:1025400004F4142C0CD0002422430BD04A6D521CEE
:102550004A65032A09DD81F8505081F8520004E0F1
:102560000124F1E781F850304B6581F85100F0BD4E
:102570002DE9F0410D462DED068BA0B0B0EE42AA3C
:10258000F0EE62AAB0EE419AF0EE619AB0EE408AA7
:10259000F0EE608A04464FF0FF389FED540A00F5D4
:1025A0006E708DED020A07460FF0B9F806464246F6
:1025B000394604A80FF093F8382204A912A8FFF7AF
:1025C000DBFA9DED1E0B51EC100BFFF78BFD00EEBF
:1025D000100A02AB32464FF47A7104F5196026F006
:1025E000EDFC53EC192B51EC180BFFF7D7FB41EC2A
:1025F000100B21F001FF53EC1A2B51EC100BFFF7DD
:1026000045FC41EC190B0298FFF729FD53EC182B00
:10261000FFF7C7FB41EC100B21F0EEFE53EC1A2B39
:1026200051EC100BFFF732FC06460F460298FFF7FD
:1026300016FD04F6A81282E8C30094ED000B51ECDD
:10264000180B53EC102BFFF735FD01D240464AE042
:102650009FED270B51EC180B53EC102BFFF72AFDC5
:1026600030D20298FFF7FBFC53EC182BFFF722FD4A
:1026700004D2B0EE480AF0EE680A04E00298FFF7D0
:10268000EEFC41EC100B9FED1C1B51EC100B53ECBE
:10269000112BFFF789FB41EC1A0B0298FFF7DFFCC7
:1026A00053EC182BFFF77DFB41EC100B21F0A4FE3F
:1026B00053EC1A2B51EC100BFFF7FCFC02D26FF01D
:1026C000010010E094ED020B51EC190B53EC102BB0
:1026D000FFF7F0FC05D3286820B0BDEC068BBDE801
:1026E000F0816FF002002860F6E7000000000000B3
:1026F000000000C0CCCCFC3F333333333333F33FE3
:1027000070B50D462DED028B0446B0EE408A0321D4
:10271000284621F0C5F8DFED410A30EE600A23F0CB
:10272000ABFD10EE100A3E490022884203DD00BFD7
:1027300084F8202068E095ED001AD4ED000A95EDAC
:10274000010AD5ED022A70EE811AC4ED001AD4ED0B
:10275000030A41EE010AC4ED030A94ED011A31EEB9
:10276000003A84ED013A94ED041A00EE001A84ED6B
:10277000041A94ED020A70EE223A9FED2A0AC4ED83
:10278000023A94ED052A02EEA22AC8EE002A84ED50
:10279000052AA069401CA061E369BCEEE20A10EEC4
:1027A000101A1944E161B1F57A7F34D900EE100AAC
:1027B000B7EE004A61EEA11AF8EE402A1A4984EEFB
:1027C000220A41EEC00A63EE031A01EEC01A63EE5C
:1027D000A31A60EE800A01EEC02A21EE001A10EE64
:1027E000900A884222EE000AA2DA11EE100A88420C
:1027F0009EDA10EE100A88429ADA94F82000FF2838
:1028000002D2401C84F820002046BDEC028BBDE8BB
:10281000704015F09BB8BDEC028B70BD0AE81C41FE
:10282000DD0C7B3F00007A4413AC203B70B50E46B4
:102830002DED048B0446B0EE409A0025032130466E
:1028400021F02EF8D4ED130AF7EE008A20EEA08ACC
:1028500030EE680A23F010FD10EE100A3B49884262
:1028600006DD204615F086F8681EBDEC048B70BDB1
:1028700096EC030AF0EE491A204615F037F9204687
:1028800038F0F8FEE8B3606BE0B300EE100AD4ED68
:10289000002AF8EE400A22EEA21A88EEA00AD4ED31
:1028A000030A41EE400A20EE801A84ED091A94EDE5
:1028B000012AD4ED040AB4EEC81A62EE021A41EEFF
:1028C000C00A60EE801AC4ED0A1AD4ED020A94ED33
:1028D000053A60EEA03A03EEC03A23EE003AF1EE7C
:1028E00010FA84ED0B3A26D2F4EEC81AF1EE10FA83
:1028F00021D2B4EEC83AF1EE10FA1CD262EE801A80
:1029000001E01BE01DE022EE001A60EE800A21EEDD
:10291000A10A0F49C4ED061A84ED071A01EE010A57
:10292000C4ED080A00EEA00A10EE100A0844094996
:10293000884200D20125204615F01CF884F830505A
:1029400002E0204615F016F828468EE79A99993E3F
:1029500084EBD1C05B8F820030B5CA6800F174038C
:10296000B2F17F5F01DA012200E0032290F86950A2
:10297000046815B10B2C00D10022241F132C2AD27D
:10298000DFE804F00A0E0E0E0E1216162622292972
:1029900029292929291A1E00C46A1444C4621AE08C
:1029A00044691444446116E084691444846112E06B
:1029B000C4691444C4610EE0046A144404620AE069
:1029C000446A1444446206E0846A1444846202E067
:1029D000046914440461012A08DD486938B10128FA
:1029E00009D0022802D198691044986130BD186955
:1029F0001044186130BD58691044586130BD000062
:102A000030B5C38C458B1C46D0ED020A6B43E1B157
:102A100010EE901A254A914202DD818C491C818476
:102A2000818C828B914205D900219FED210A80ED96
:102A3000020A818400EE103AD0ED020AB8EEC00A14
:102A400030EE200A80ED030A30BD7AB9418CD0ED1A
:102A5000031A01EE101AB8EE411AF4EEC11AF1EEA3
:102A600010FA03D200EE101AB8EE400A30EE200A37
:102A700000EE903A80ED020AF8EEE00A70EE800A6D
:102A8000C0ED030A00EE905AF8EE600AB4EEE00AD8
:102A9000F1EE10FAD8DD00EE905A641CF8EE600AF0
:102AA00030EE600A80ED020AC48430BDBD37863541
:102AB0000000000090F8C20701F58061032808D2E9
:102AC00091EDCC0A81EDCB0A9FED0A0A81EDCC0A8B
:102AD000704791EDCB0AD2ED0C0A30EE200A81ED61
:102AE000CB0A91EDCD0AD2ED0C0A30EE200A81ED31
:102AF000CD0A70470000000070B504462DED028B32
:102B00000D46007E002857D10026A08B022A36D021
:102B100010B1A07E401CA076A07E616B884201DBD4
:102B2000A683A67694F82800002845D00321281D06
:102B300020F0B6FEF0EE408A95ED010AB1EE400AB3
:102B4000C0EE280AB0EE600A21F042FE10EE100A34
:102B5000FFF785FA9FED1B1B53EC112BFFF724F9B0
:102B6000FFF7C0FA08EE100A95ED010A23F084FB86
:102B7000B4EEE80AF1EE10FA04DD012103E0401C96
:102B8000A083CFE70021E08B00B1C1B994ED0C0A1E
:102B9000F8EEC00AF4EEC80AF1EE10FA0ADCB8EE5C
:102BA000C00ADFED0A0A30EEC00AB4EEC80AF1EE40
:102BB00010FA04D2401CE083BDEC028B70BDE683AA
:102BC000FAE70000F8C1631ADCA54C40000034436A
:102BD0002DE9F04100272DED028B88B0054600F568
:102BE000FC6800F5F56404970597069790F8CA0706
:102BF0000E46E2B3E068002808DDD5F82018084446
:102C0000E0606168D5F8200808446060A88B6168BE
:102C1000814201DDE760676098F80000002864D019
:102C200096ED080AD6ED090A0321B8EEC01AB8EEEF
:102C3000C00A04A8C0EE811ACDED041AD6ED0A0A26
:102C400080EE801A8DED051A96ED080AD6ED0B0A76
:102C5000B8EEC00A80EE801A8DED061A20F020FE34
:102C6000B0EE408A9DED040AC0EE080A00E01CE0C8
:102C7000B0EE600A21F0ACFD10EE100AFFF7EFF99C
:102C80009FED3C1B53EC112BFFF78EF8FFF72AFA50
:102C900008EE900A9DED040A23F0EEFAB4EEC80A9D
:102CA000F1EE10FA0CDD01200BE018B9688CE16838
:102CB000814201DBD5F82008E1680844E060AAE71A
:102CC00000202169B1B1A8B118EE100AFFF7C7F9C9
:102CD00005460E460498FFF7C2F98DE8630003220B
:102CE00026A110461AF0FAFF276108B0BDEC028B4E
:102CF000BDE8F081B8F8040000EE100AB8EE400A12
:102D0000B4EEE80AF1EE10FA10DC00EE100ADFED86
:102D1000240AB8EE400A30EEC00AB4EEE80AF1EE3A
:102D200010FA03D3002906DDB07C28B1D5F82008BD
:102D3000084420611BE0D8D0A068D5F820180844CA
:102D4000A0602069D5F8201800EB01052561A06876
:102D50000528CADD18EE900AFFF781F9CDE90001D8
:102D600003222B460FA110461AF0B8FF2761A76077
:102D7000BBE70000F8C1631ADCA54C40522F412587
:102D8000643A204153542C696E76616C6964206109
:102D90006E676C652C252E32662C252E326600005F
:102DA00000003443522F4125643A204153542C7A79
:102DB00065726F696E672C25642C352C252E316663
:102DC000000000002DE9F04391B00E46054604686E
:102DD000914618210BA8FEF7E8FE2078092831D08B
:102DE00009202070284612F09FFB092204F27C4142
:102DF00028460DF0F3FC1C2104A8D5F80080FEF74E
:102E0000D4FED8F8FC7404A92846BA6990479DF806
:102E1000271088F8971B01208DF827007A6904A9EC
:102E2000284690479DF826009DF829209DF82510FA
:102E30008DE807004FF0FF309DF8273002461AA1B9
:102E40001AF04CFF32680BAB07CA83E8070096ED17
:102E5000020A04F108028DED0E0A306816460BA92D
:102E600090ED0E0A8DED0F0A28691090686824F025
:102E7000A3FB051E13DD0E236C2200213046CDF886
:102E8000009013F01DF994ED051AD4ED030A94EDAA
:102E9000020AF0EE411A04F5B16013F0E7FE11B03A
:102EA0002846BDE8F0830000522F4125643A204DAA
:102EB00065746120636F6E666967206368616E6721
:102EC00065643A2025642C2025642C2025642C2060
:102ED000256400002DE9F041E0B00D460646046887
:102EE0001746242156A8FEF760FE4FF4A878414605
:102EF00002A8FEF75AFE207804280DD00420207086
:102F0000304612F011FB304612F04CFA042204F263
:102F1000A44130460DF062FC306895ED020A0DF5D3
:102F2000B67C8DED5A0A2B6800F5D5600ECB8CE887
:102F30000E003169CDE95610286890ED0E0A8DED2E
:102F40005E0A28685B9980E80E0002AA56A970689C
:102F500028F098FF051E07DD0C23424602A904F164
:102F60000800009713F0ACF860B02846BDE8F08187
:102F70002DE9F041CAB08846064604681746062582
:102F8000482138A8FEF711FEDC2101A8FEF70DFE4E
:102F9000207802280AD002202070304612F0C4FAAD
:102FA000022204F5936130460DF018FC38AA414620
:102FB000304610F063F801AA38A9706829F096FC31
:102FC000061E16DD022E00D107252B46DC2201A9A4
:102FD00004F10800009713F073F8DDED2A1A9DED57
:102FE0002B1ADDED290A9DED280A04F5B16013F0D6
:102FF0003DFE4AB03046BDE8F0810000F0B59DB01E
:103000000F46054604681646482109A8FEF7CDFD7F
:10301000202101A8FEF7C9FD2078082810D008203B
:103020002070284612F080FA1749022268690B685E
:1030300001219847082204F27C4128460DF0CEFB7E
:1030400009AA3946284610F05BF801AA09A9686860
:1030500024F0BCFC051E13DD0D23202201A904F180
:103060000800009613F02CF8DFED080A9DED040A25
:1030700004F5B160F0EE601AB0EE601A13F0F6FDE0
:103080001DB02846F0BD0000500304000000000001
:103090002DE9F04190B00546046800200E468DF8F9
:1030A0003C000968904696ED020A0FAAF0EE080A65
:1030B00028460C3104F032FE00286DD02C2101A8E6
:1030C000FEF773FD2078364F0A2824D00A2020709E
:1030D0009FED340A04F5806080EDF20A284612F074
:1030E00023FA02223B686869012198470A2204F208
:1030F0007C4128460DF072FB0FA968681FF0D4FAD6
:1031000004F6841204F2F471686837F0A5FB2969AB
:10311000686837F045FB7B68686903223146984749
:103120000CA968692DF07CF8326802AB07CA83E805
:103130000700326805AB0C3207CA83E807000CAB06
:1031400093E8070008AB83E8070096ED020A04F154
:1031500008028DED010A3068164601A990ED0E0AAD
:103160008DED0B0A68682BF035FA051E13DD0F2371
:10317000782200213046CDF8008012F0A1FF94EDB6
:10318000131AD4ED110A94ED100AF0EE411A04F569
:10319000B16013F06BFD284610B0BDE8F08100006F
:1031A0005003040000000000F0B593B00F4606463F
:1031B000056814462C216846FEF7F7FC0BAA394631
:1031C000304600F05FF86A460BA9B06921F016FBA3
:1031D000074605F68D31B06921F080FB0A986062E0
:1031E0002022201D02A9FEF7C7FC002F11DDDDE91A
:1031F000001000EBC00202EB001001EB8003132271
:1032000005A11046EB601AF069FD607840F00200FD
:10321000607013B03846F0BD522F4125643A20410A
:103220006C657274526573756C743A25640A00009B
:1032300070B50C46084921600546096880698847D1
:103240002168A869496888472068211D4269284685
:10325000BDE870401047000088070400806921F035
:1032600035BB000010B504A1002019F0BFFABDE87D
:10327000104021F079BB0000405F4041616C6572F5
:10328000740000002DE9F04104262DED028B154657
:1032900004680020107294F8860B0F46192812D18A
:1032A00094F85C05D4F8206B28B1314620460EF026
:1032B00061F800B10D2694F8800620B1052E02D0E9
:1032C0000D2E00D00C2694F8860B172801D1012072
:1032D000287204F5806090EDF30A85ED030A90ED05
:1032E000F10A85ED040AB988C5E9006194F8941BD8
:1032F00089B300212976D0F8CC030026B0F17F5F96
:1033000024DB04F5006494EDCF0AD4EDD00A30EE4E
:10331000600A22F0B1FF10EE107A94EDCE0AD4EDDF
:10332000CF0A30EE608AB0EE480A22F0A5FFB7F16E
:10333000814F0BDC10EE100A0849884206DBB5EE1F
:10334000C08A0226F1EE10FA00D201266E61BDECB1
:10335000028BBDE8F081FFE70121CBE70000A04030
:1033600070B5044600681C2200F244500546FEF782
:1033700003FC2946A069BDE8704021F0F7BA0000BF
:1033800070B590ED010AD1ED030A044630EE200A33
:1033900080ED010A90ED1B0AD1ED030A30EE200A00
:1033A00080ED1B0AFFF7D8FA13496068884221DDD7
:1033B00004F110000821054609F0B7FD04EB800177
:1033C0000A690F2A00DC0020207294F8690020B1FD
:1033D0000869192801DA00202072204607F082FAD5
:1033E0009FED060A202184ED010A2846FEF7DDFB49
:1033F000012070BD002070BD00006E420000000082
:1034000010B504201CF0CCFD002010BD00F5C262F8
:1034100000F5006390ED7F0AD2ED000A93EDCD1A1E
:1034200090F85D0570EE600A20EE011A28B1D3ED28
:10343000D01A012920EE210A05D091B1012924D00A
:10344000022928D02DE010EE100A174B98421CDDFF
:103450001649906988420ADD906A262807DC012017
:103460007047906A292802DC106A222801DB0220BA
:10347000704792F82C00122801D0152811D110EEB7
:10348000900A0B4A90420AD80BE011EE100A094A42
:10349000904204DB05E09069074A904201DD032079
:1034A00070470846704700001D5A064285EB3140C0
:1034B00017D96CC19643033F7DCB044030B58EB025
:1034C0000D46002100910191029103910421049184
:1034D0001521CDE905100D48089000F5A870099058
:1034E00054300A9015300B90CDF81CD02A300C9037
:1034F000144604A807F094FB9DF8341021709DE851
:103500001E0085E81E000EB030BD0000A0030400C0
:1035100030B59FB08A8E0DF16C0C4D8F0C8FCB8E19
:103520008CE83C008A8D0DF15C0C4D8E0C8ECB8DA1
:103530008CE83C008A8C0DF14C0C4D8D0C8DCB8CA5
:103540008CE83C008A8B0DF13C0C4D8C0C8CCB8BA9
:103550008CE83C008A8A0DF12C0C4D8B0C8BCB8AAD
:103560008CE83C008A890DF11C0C4D8A0C8ACB89B1
:103570008CE83C008A880DF10C0C4D890C89CB88B5
:103580008CE83C004A880988C378CDE90031029272
:1035900083780522024910461AF0A0FB1FB030BD07
:1035A000102A04002DE9F041044686B00068FEF7B9
:1035B00056FD02ABE26A83E80700206B009004220C
:1035C0003C491046A36A1AF089FBA069FEF747FD43
:1035D000074688466069FEF742FD05460E462069AB
:1035E000FEF73DFD0B4602468DE8EC01042232A1B8
:1035F00010461AF073FBE068FEF731FD0746884677
:10360000A068FEF72CFD05460E466068FEF727FD14
:103610000B4602468DE8EC01042233A110461AF055
:103620005DFB616ED4F88800CDE9000104223AA167
:103630001046D4F88C301AF051FBA06CFEF70FFD49
:1036400005460E46606CFEF70AFD07468846206C6C
:10365000FEF705FD0B4602468DE88C01CDE90456C8
:1036600004223BA110461AF039FBE06BFEF7F7FC91
:1036700005460E46A06BFEF7F2FC07468846606BD7
:10368000FEF7EDFC0B4602468DE88C01CDE90456B1
:1036900004223BA110461AF021FBD4E91701CDE921
:1036A0000001042242A11046A36D1AF017FB06B0D8
:1036B000BDE8F081582C0400522F4125643A206C5B
:1036C0006170207061636520696E666F3A20617673
:1036D000673D25662C206D61783D25662C206D693F
:1036E0006E3D25660A000000522F4125643A206C89
:1036F0006170206672657120696E666F3A2061762E
:10370000673D25662C206D61783D25662C206D690E
:103710006E3D25660A000000522F4125643A207450
:103720006F74616C20696E666F3A206C6170733DD6
:1037300025642C207374726F6B65733D25642C2097
:103740007377696D20747970653D25640A00000007
:10375000522F4125643A20746F74616C207061634C
:103760006520696E666F3A206176673D25662C207C
:103770006D61783D25662C206D696E3D25660A00D9
:10378000522F4125643A20746F74616C2066726513
:103790007120696E666F3A206176673D25662C2040
:1037A0006D61783D25662C206D696E3D25660A00A9
:1037B000522F4125643A20746F74616C2073776FC7
:1037C0006C6620696E666F3A206176673D25642CD1
:1037D000206D61783D25642C206D696E3D25640A5D
:1037E00000000000F0B50D490D4E00220C680021CC
:1037F00002EB800504EB820301EB850C5F5C16F89D
:103800000CC087EA0C075F54491CC9B20429F3D3E2
:10381000521CD2B2042AEAD3F0BD0000C405002035
:10382000A82A0020F0B589B00446057A00F15007B7
:10383000002620216846FEF7B8F9386801907868BC
:103840000290B8680390F868049000EE105A386946
:1038500005907869B8EEC01AF7EE000AB0EE000ADB
:10386000069024F061F8002100B1E16304EB8500CB
:10387000026B521C0263062D0CD0A164012D09D0ED
:10388000072D07D094ED1B0ADFED180A30EE200A51
:1038900084ED1C0A006B5DF82510884222DB00EEE7
:1038A000105AF7EE000AB8EEC01AB1EE0C0A24F076
:1038B0003BF8B8B1A0890126401C80B2A081062D3A
:1038C0000BD194ED1B0AD4ED1C0AB4EEE00AF1EE24
:1038D00010FA02D20026401EA081202104F13000FF
:1038E000FEF763F909B03046F0BD00000000164451
:1038F0002DE9F0410E46074609F000F9054600247F
:1039000008E000BF55F8242031463846904700288B
:1039100006DA641C09F0D3FEA042F3DC6FF001006C
:10392000BDE8F08170B5016001F698310446416050
:1039300007F062F861680844A06015480068804795
:10394000A1680844E060134800688047E168124DB0
:103950000844606129680D20884761690844206136
:1039600029680B20884721690844A0610B4800683A
:103970008047A1690844E061094800688047024621
:1039800004F12000E169BDE8704013F041BA000085
:10399000D405040004080400280304008007040080
:1039A000A80704002DE9F0410E462DED028B0446D8
:1039B00017469FED478A032130461FF071FFDFED68
:1039C000450A207B30EE600AC0EE208A10B194EDEB
:1039D000040A12E094ED041AF1EE680A9FED3E0A23
:1039E00071EE200AF5EEC00AF1EE10FA01D39FED58
:1039F0003B0A31EE000A84ED040A38EEC00A22F0D8
:103A00003BFC10EE100A3649884211DD012020737C
:103A100004F1140006F11801054607F071FD94F851
:103A20004000012809D0022810D0032848D12CE0FA
:103A30000020BDEC028BBDE8F081B0EE680A314693
:103A4000204637F083FBB0EE408A39E094ED0C0A53
:103A5000D4ED0D0AD6ED008A20EE000A96ED018A1B
:103A600000EEA00A28F04CFEB7EE001AC1EE000AE4
:103A700094ED0C0A20EE201A94ED0D0A20EE200A97
:103A800021EE088A00EE688A1AE094F84110284670
:103A900004F13C05002917D006EB810090ED068A61
:103AA0000AD195ED000A22F0E7FB10EE100A0D494D
:103AB000884201DA85ED008A95ED000A38EE408AE9
:103AC000012087ED008AB4E790ED018AE8E7000065
:103AD000000000000AE81C416F12033A6F1203BA9B
:103AE0000AD7233CBD3786352DE9F0430468D1ED74
:103AF000020A04F580678DB097ED7D0A4FF000094A
:103B00000D4630EE200A0646C84687ED7D0A84F849
:103B10009F9730216846FEF748F828689FED1B1AEA
:103B2000DFED1B0A90ED0A0A04F2E45021F04CFE8E
:103B30001849D7F8F401884224DD286897ED790AFE
:103B4000D0ED0B0A20460DF055FE78B197ED790ABD
:103B500004F5D5628DED080A2868694690ED0B0AD8
:103B60008DED090AF06824F07DF981469FED0A0A7F
:103B700087ED7D0AC4F8E485C4F8E885C4F8EC85CF
:103B8000C4F8F0850DB04846BDE8F0830000FA4463
:103B90000000FA43002474490000000010B50446F8
:103BA0002DED028B82B091ED018AD1ED020AD1EDAB
:103BB000038A91ED050A0020009001906068401C86
:103BC0006060002011F1040101EB800304EB80022E
:103BD00093ED001AD2ED021AB4EEE11AF1EE10FAEA
:103BE00001DD82ED021A93ED001AD2ED051AB4EE52
:103BF000E11AF1EE10FA01D282ED051A401C0328F9
:103C0000E2DB94ED081AB4EEC01AF1EE10FA01D21C
:103C100084ED080A94ED091AB4EEC01AF1EE10FA18
:103C200001DD84ED090A207800285BD078EE200AB7
:103C300094ED0B0A6946204630EE200AF0EE680A41
:103C400084ED0B0AB0EE480A09F0E4FC606896289F
:103C50004CDC94ED0C0A08EE080A84ED0C0A94ED95
:103C60000E0A30EE080A84ED0E0A94ED020A84ED85
:103C70000F0A94ED050A84ED100A94ED110ADDEDAA
:103C8000000A30EE200A84ED110A94ED180A08EEBD
:103C9000A80A84ED180A94ED1A0A30EE280A84ED79
:103CA0001A0A94ED040A84ED1B0A94ED070A84EDC8
:103CB0001C0A94ED1D0ADDED010A30EE200A84EDA8
:103CC0001D0A0FD14FF000009FED250ADFED250AF8
:103CD00004EB800100F1010081ED020AC1ED050A4B
:103CE0000328F5DB02B0BDEC028B10BD94ED120A87
:103CF00008EE080A84ED120A94ED140A30EE080A60
:103D000084ED140A94ED020A84ED150A94ED050A77
:103D100084ED160A94ED170ADDED000A30EE200A54
:103D200084ED170A94ED1E0A08EEA80A84ED1E0A17
:103D300094ED200A30EE280A84ED200A94ED040A5E
:103D400084ED210A94ED070A84ED220A94ED230AFA
:103D5000DDED010A30EE200A84ED230AC2E70000FF
:103D6000FFFF7FFFFFFF7F7F00228B5C8354521C8D
:103D7000D2B2102AF9D3704710B5026892F88B3B83
:103D80003BB10B46B2F8802B012100F004F8012072
:103D900010BD002010BD70B504680E461D46B4F875
:103DA000EC111144A4F8EC1194F8E811114484F8D2
:103DB000E811B4F8EC11B4F8EE2104F5E474914282
:103DC00005D900F040F8687840F00400687094F875
:103DD00021003044C0B284F821001E2816D30021EF
:103DE00084F821102578A21C94F82030AB54207858
:103DF000401CC0B220706378984200D3002020702D
:103E0000A38C805C181AA08484F8201070BD70B553
:103E10000E4605460468FFF7AFFF002812D194F85C
:103E2000910B00280ED004F58064334694EDF30A1C
:103E30002846BDE87040BDEEC00A002210EE101A00
:103E4000FFF7A9BF70BD10B500681E2100F5E4742E
:103E5000A01CFDF7AAFE0021217084F8201084F830
:103E60002110A18410BD70B50C46C568FDF7F4FAA9
:103E70006FF400302044042835D8A86AA04202D14B
:103E800001201EF0AFFC686BA04202D102201EF0A0
:103E9000A9FC286CA04202D103201EF0A3FCE86C10
:103EA000A04202D104201EF09DFCA86DA04202D1C8
:103EB00005201EF097FC686EA04202D106201EF07D
:103EC00091FC286FA04202D107201EF08BFCE86F06
:103ED000A04202D108201EF085FCE869A04202D170
:103EE00000201EF07FFC002070BD00B591B0402185
:103EF00001A8FDF75AFE01200190029002200390D4
:103F00000490059006900020079001A9072001F079
:103F100008F811B000BD000001B5BEB03E980068C1
:103F200011287DD2DFE800F0D0FEFDFCFBFAF9F8A5
:103F3000AAF7F6097CF5F4F3F2003E9890ED040A36
:103F4000B5EEC00AF1EE10FA0FD03E9890ED030ADC
:103F5000BDEEC00A10EE100A012101FA00F0FE4980
:103F600009680843FC4908600DE03E9890ED030A9B
:103F7000BDEEC00A10EE100A01218140F64800682B
:103F80008843F54908603E9800693990FEF767F864
:103F9000CDE93C013E98C0683990FEF760F8CDE964
:103FA0003A01DDE93C01CDE900013E9890ED030ABC
:103FB000BDEEC00A10EE100AE84951F82000399011
:103FC0009DED3A0B53EC102B0146E5A000F06AFE84
:103FD00009202CF0EDFD3D9008202CF0E9FD3C90EF
:103FE00007202CF0E5FD3B9006202CF0E1FD3A90F7
:103FF00005202CF0DDFD399004202CF0D9FD3890FF
:1040000003202CF0D5FD379002202CF0D1FD369006
:1040100001202CF0CDFD359000202CF0C9FD00E0F2
:104020003BE23490DDE93A23DDE93C10CDE903239E
:10403000CDE90510DDE937123998CDE9001202907B
:10404000D44834A90EC900F02DFE00202CF0B0FD9C
:1040500058B9D1480088012807D1D04908800846BE
:104060000188CFA015F0B8FC07E00020CB490880FC
:1040700008460188CAA015F0AFFC91E33E9800699C
:104080003790FDF7ECFFCDE93C013E98C0683790D2
:10409000FDF7E5FFCDE93A013E9880683790FDF7DE
:1040A000DEFFCDE93801DDE93C01CDE90201DDE9C2
:1040B0003A01CDE900019DED380B53EC102BBCA16A
:1040C000BEA000F0EFFD6BE33E9800693790FDF76E
:1040D000C6FFCDE93C013E98C0683790FDF7BFFFB1
:1040E000CDE93A013E9880683790FDF7B8FFCDE9F9
:1040F0003801DDE93C01CDE90201DDE93A01CDE914
:1041000000019DED380B53EC102B0CE02CE30FE37A
:1041100059E23CE2E9E1C1E104E19BE07FE06EE0CD
:104120005DE02BE004E0ABA1A4A000F0BBFD37E311
:104130003E9800693790FDF792FFCDE93C013E982B
:10414000C0683790FDF78BFFCDE93A013E98806853
:104150003790FDF784FFCDE93801DDE93C01CDE979
:104160000201DDE93A01CDE900019DED380B53EC88
:10417000102B9AA191A000F095FD11E33E984069A3
:104180003590FDF76CFFCDE93C013E980069359014
:10419000FDF765FFCDE93A013E98C0683590FDF71F
:1041A0005EFFCDE938013E9880683590FDF757FFF6
:1041B000CDE93601DDE93C01CDE90401DDE93A0153
:1041C000CDE90201DDE93801CDE900019DED360BB5
:1041D00053EC102B83A184A000F064FDE0E23E9834
:1041E00080683B90FDF73BFFCDE93C019DED3C0B2A
:1041F00053EC102B83A185A000F054FDD0E23E9833
:1042000080683B90FDF72BFFCDE93C019DED3C0B19
:1042100053EC102B80A17DA000F044FDC0E23E983D
:10422000C0683990FDF71BFFCDE93C013E988068DE
:104230003990FDF714FFCDE93A01DDE93C01CDE904
:1042400000019DED3A0B53EC102B75A177A000F007
:1042500029FDA5E23E98806A2B90FDF700FFCDE98D
:104260003C013E98406A2B90FDF7F9FECDE93A01FA
:104270003E98006A2B90FDF7F2FECDE938013E989A
:10428000C0692B90FDF7EBFECDE936013E988069C1
:104290002B90FDF7E4FECDE934013E9840692B9068
:1042A000FDF7DDFECDE932013E9800692B90FDF768
:1042B000D6FECDE930013E98C0682B90FDF7CFFEC9
:1042C000CDE92E013E9880682B90FDF7C8FECDE920
:1042D0002C01DDE93C01CDE90E01DDE93A01CDE932
:1042E0000C01DDE93801CDE90A01DDE93601CDE94E
:1042F0000801DDE93401CDE90601DDE93201CDE94E
:104300000401DDE93001CDE90201DDE92E01CDE94D
:1043100000019DED2C0B53EC102B48A149A000F09F
:10432000C1FC3DE23E9800693790FDF798FECDE96B
:104330003C013E98C0683790FDF791FECDE93A0107
:104340003E9880683790FDF78AFECDE93801DDE9B7
:104350003C01CDE9020193E08800002060000020CC
:104360007265715F73656E736F7220696E707574BC
:104370005F73656E736F723A20257328252E316640
:10438000292C207377697463683A20252E31660AD8
:1043900000000000B0260400120000208C00002065
:1043A0004C504D5F464C41473D25640A00000000DB
:1043B000736564656E7461727900000025733A203C
:1043C000252E34662C20252E34662C20252E34668E
:1043D0000A000000616363656C0000006779726F1A
:1043E000000000006D61670025733A20252E3466B9
:1043F0002C20252E34662C20252E34662C252E3498
:10440000660A00006261726F0000000025733A20A6
:10441000252E34660A00000074656D7000000000EF
:1044200068656172742072617465000025733A20BA
:10443000252E34662C20252E34660A00676E737391
:104440000000000025733A20252E34662C20252EEE
:1044500034662C20252E34662C20252E34662C2004
:10446000252E34662C20252E34662C20252E3466ED
:104470002C20252E34662C20252E34660A000000C0
:10448000DDE93A01CDE900019DED380B53EC102B2D
:10449000C5A1AFF2D80000F005FC81E13E980069AB
:1044A0003790FDF7DCFDCDE93C013E98C0683790C0
:1044B000FDF7D5FDCDE93A013E9880683790FDF7CC
:1044C000CEFDCDE93801DDE93C01CDE90201DDE9B0
:1044D0003A01CDE900019DED380B53EC102BB4A14E
:1044E000AFF2281000F0DEFB5AE13E98006A2F90F0
:1044F000FDF7B5FDCDE93C013E98C0692F90FDF771
:10450000AEFDCDE93A013E9880692F90FDF7A7FDF9
:10451000CDE938013E9840692F90FDF7A0FDCDE927
:1045200036013E9800692F90FDF799FDCDE93401E1
:104530003E98C0682F90FDF792FDCDE932013E987C
:1045400080682F90FDF78BFDCDE93001DDE93C015E
:10455000CDE90A01DDE93A01CDE90801DDE93801DB
:10456000CDE90601DDE93601CDE90401DDE93401DB
:10457000CDE90201DDE93201CDE900019DED300B0D
:1045800053EC102B8EA190A000F08CFB08E13E981C
:10459000C0683990FDF763FDCDE93C013E98806825
:1045A0003990FDF75CFDCDE93A01DDE93C01CDE94B
:1045B00000019DED3A0B53EC102B8FA1AFF294103C
:1045C00000F070FBECE03E98406C1D90FDF747FD5D
:1045D000CDE93C013E98006C1D90FDF740FDCDE912
:1045E0003A013E98C06B1D90FDF739FDCDE93801C9
:1045F0003E98806B1D90FDF732FDCDE936013E9867
:10460000406B1D90FDF72BFDCDE934013E98006B0A
:104610001D90FDF724FDCDE932013E98C06A1D9042
:10462000FDF71DFDCDE930013E98806A1D90FDF734
:1046300016FDCDE92E013E98406A1D90FDF70FFD55
:10464000CDE92C013E98006A1D90FDF708FDCDE9EB
:104650002A013E98C0691D90FDF701FDCDE92801B2
:104660003E9880691D90FDF7FAFCCDE926013E9841
:1046700040691D90FDF7F3FCCDE924013E980069E7
:104680001D90FDF7ECFCCDE922013E98C0681D901D
:10469000FDF7E5FCCDE920013E9880681D90FDF70F
:1046A000DEFCCDE91E01DDE93C01CDE91C01DDE9BF
:1046B0003A01CDE91A01DDE93801CDE91801DDE95A
:1046C0003601CDE91601DDE93401CDE91401DDE95A
:1046D0003201CDE91201DDE93001CDE91001DDE95A
:1046E0002E01CDE90E01DDE92C01CDE90C01DDE95A
:1046F0002A01CDE90A01DDE92801CDE90801DDE95A
:104700002601CDE90601DDE92401CDE90401DDE959
:104710002201CDE90201DDE92001CDE900019DED95
:104720001E0B53EC102B36A1394800F0BBFA37E0D2
:104730003E98C0683990FDF792FCCDE93C013E9867
:1047400080683990FDF78BFCCDE93A01DDE93C0149
:10475000CDE900019DED3A0B53EC102B2DA1AFF2EA
:10476000343000F09FFA1BE03E98C0683990FDF7A6
:1047700076FCCDE93C013E9880683990FDF76FFCEE
:10478000CDE93A01DDE93C01CDE900019DED3A0BAF
:1047900053EC102B22A1AFF26C3000F083FA00BF73
:1047A00000BF3FB000BD00006F6666626F647900B5
:1047B00077617463682068616E6475700000000042
:1047C000736C65657000000025733A20252E3466F1
:1047D0002C20252E34662C20252E34662C20252EC8
:1047E00034662C20252E34662C20252E34662C2071
:1047F000252E34660A0000007368616B65000000B6
:104800006163746976697479206F7574707574006A
:1048100010270400616E79206D6F74696F6E00005F
:104820006E6F206D6F74696F6E00000000B5A1B0EF
:10483000402111A8FDF7B9F901201190129001A8AB
:10484000139040201490002015901690179011A9F5
:10485000082000F066FB01A8009006A0DDE91531F4
:10486000179A00F01FFA12A01AA90EC900F01AFA3E
:1048700021B000BD686176655F73656375726974A8
:1048800079203D2025642E2564207265745F627551
:1048900066665F73697A65203D2025642020636821
:1048A0006970496E666F203D2025730A0000000084
:1048B000636869705F73657474696E6773203D2007
:1048C00025642C2025642C2025640A0000B591B0B5
:1048D000402101A8FDF769F9012001900020029014
:1048E0000348039001A9112000F01BFB11B000BD8B
:1048F0002DAF8206002134F019BF000070B50546C7
:104900000120FCF7B3FD78B1FCF7A6FD0B4A0023AC
:10491000FDF7CBF80A4C03462A460AA0A16937F0F6
:10492000EBFAA069401CA061FCF7C5FD002804D08B
:104930002846BDE8704034F03DBF70BD40420F00D6
:104940006C0100205441473D4353464920534E28B3
:104950002564294D41582825642954532825642964
:10496000000000003EB50025DDE906148DE83200A8
:1049700034F042FF3EBD00002DE9F041214D686852
:1049800000283CD000272DF0D2FB6868C46933E0D2
:104990001DA16068FDF73DF938B11FA16068FDF702
:1049A00038F910B137F0E6FA90B137F07BFF060026
:1049B00015D0214606F0DEFBD8B12146D4F81C8084
:1049C00068682DF0BCFB4446304637F0A3FF13E087
:1049D0002146E66968682DF0B2FB34460CE02146BA
:1049E000E66968682DF0ABFB34460CA037F084FA1A
:1049F00002E0A661E4697F1C002CC9D13846BDE8FD
:104A0000F081000030030020637573746F6D2D64B6
:104A10007269766572000000696E6D00464154410E
:104A20004C206572726F72212068775F73656E73B8
:104A30006F725F696E6974206661696C65640000FD
:104A400000B593B0402103A8FDF7AFF80120039013
:104A500003A90C2000F065FADDE90701CDE90001AA
:104A600003A004A90EC900F01DF913B000BD000099
:104A700076657273696F6E3A25642E25642E2564FF
:104A80002E25642070726F647563743A25640A0081
:104A900000B591B0402101A8FDF787F801200190F1
:104AA0000020029001A91A2000F03BFA11B000BDCD
:104AB00000B591B0402101A8FDF777F801200190E1
:104AC00009200490072005904FF0FF3008906FF008
:104AD00040000A9001A9002000F023FA11B000BDA7
:104AE0007CB5364C06462068002865D10120206040
:104AF0000DF08EF901A82BF0CBFC0198416A3048EB
:104B0000884701982F4A2030A063002104F110004B
:104B10000DF0BEF800252B46052229462AA0009557
:104B200000F082F900231A4619462AA0009500F0E9
:104B30007BF900231A46194627A0009500F074F966
:104B4000FFF71AFF05F028FD00F0DAF934F02EF82F
:104B50001FF046F9244A022124481FF0A2F82348F6
:104B6000234A0221001D1FF09CF82048214A0221FF
:104B700008301FF096F81D481F4A02210C301FF024
:104B800090F81A481D4A022110301FF08AF8174881
:104B90001B4A022114301FF084F81A482AF016FD2F
:104BA00000214FF4003033F089FA002037F06EF91D
:104BB000002037F073F966617CBD00008802002098
:104BC0009D72815B25110000626D693136302D695F
:104BD00032630000696E6D00637573746F6D2D64D0
:104BE00072697665720000004DCB030044F003004B
:104BF00005CB03001DCB030035CB0300EDCA03003A
:104C0000D5CA0300D9F50200002804D0014640228D
:104C10000148FCF7B1BF7047182A002000B591B0D9
:104C2000402101A8FCF7C1FF012001903220029031
:104C300001A9642000F075F911B000BD2DE9F0471D
:104C40001BF0CCFF002504460F480CC8204629461F
:104C50001CF0ECFC06460F463046394633F078FD32
:104C60000A4B0CCB10EB020841EB03094FF47A73AB
:104C700000204146A1FB03CA09FB03A208FB002157
:104C80006046BDE8F087000000000020080000201A
:104C900010B50446214602A014F09EFE002010BD6F
:104CA000257300000FB438B5002405A80090FF213B
:104CB0000748009B049A14F0CDFE044600200090A3
:104CC0000348FFF7E5FF204638BC5DF814FB000001
:104CD0009019002010B5044604B910BD20462BF0F1
:104CE000B1F900BFF9E700002DE9FF4F81B004469C
:104CF00090461E460E9F0025002020490870012086
:104D0000434602AA214600901D4831F029F8824608
:104D100007E0681C85B200BF42F21070854200DDDA
:104D200003E0164800780028F3D000BFBAF1000F66
:104D300003D0504605B0BDE8F08F00200F49087041
:104D4000DFF83C9083463B463246214609F1040099
:104D500032F09EFC834600BFDA4607E0681C85B24D
:104D600000BF42F21070854200DD03E00348007886
:104D70000028F3D000BF5046DCE7000028000020E8
:104D8000180000202DE9FF4786B0054614461E4650
:104D9000DDE9127A4FF00008142101A8FCF705FFA5
:104DA000224607A901A8FCF7E7FE01A908193A461F
:104DB0003146FCF7E1FE00200F49087000903819D9
:104DC000C3B201AA29460D4830F0CAFF814609E066
:104DD00008F101001FFA80F800BF42F21070804510
:104DE00000DD03E0044800780028F1D000BF484609
:104DF0000AB0BDE8F087000028000020180000205D
:104E000010B5044604B9012420462FF0C9FF10BD97
:104E100070B505464FF47A70B5FBF0F404B901247F
:104E2000204630F0F5FE70BD2DE9F04387B01F46F7
:104E3000DDF8389090460D46060006D02AF07AFA42
:104E400028B1012007B0BDE8F0830220FAE70E4C3C
:104E5000606810B92DF061F960600196062D10D0E0
:104E60005FF00000ADF80800ADF8147003958DF800
:104E70000A80ADF81690694660682DF04BF9002065
:104E8000E0E70120EEE700003003002000B591B01C
:104E9000402101A8FCF789FE012001901420029016
:104EA000012003900490032005900120069001A9A1
:104EB000032000F036F811B000BD10B590B00446E4
:104EC00040216846FCF771FE01200090019469467C
:104ED0001B2000F026F810B010BD00B591B04021A5
:104EE00001A8FCF762FE0120019019200290012028
:104EF0000390049001A90D2000F013F811B000BD3B
:104F00000449002008608860C86003492020886048
:104F100070470000C827002068030020012114F01A
:104F20003BBC0022AFF300802DE9F74F93462DEDF7
:104F3000028B8AB00C46FCF78FFA064688460120A1
:104F4000FCF794FA674D50B18DE8400923460C9A5E
:104F50000020296B33F0BAF8286B401C28634FF00F
:104F6000000AD146FCF7A7FA002859D00C980A2865
:104F70000ED006DC10F1640F1FD0A8B106287FD137
:104F80001CE0112852D0642857D0652878D142E01F
:104F90002068012844D15449606808605349A068DA
:104FA00008605349E06807E02068012838D151497A
:104FB000206908605049606A086061E02068012843
:104FC0002ED16068002710B1012815D058E00020CC
:104FD00036F05CFF0022032128690CF075FE0023E7
:104FE00005221946022000970CF0D0FE0022022173
:104FF00028690CF069FE43E0012036F047FF0020ED
:1050000001468DE8830002464FF448430321286996
:105010000CF076FE34E02068012802D06FF0010A1F
:1050200059E060686860A068A86029E020680128ED
:1050300051D1286801284ED022E0206801284AD1A9
:105040006068E86008B93220E86024222B4968468D
:10505000FCF792FD9FED2A8A002700BF95ED030A19
:105060005DF827000021B8EEC00A20EE080ABCEE69
:10507000C00A10EE102A0CF08FFE7F1C092FEDD312
:1050800021460C981BF086FC012800D1814623465E
:10509000304641460C9A1BF07BF8012800D181462E
:1050A00010487830026822B121460C9890470128B8
:1050B00002D0B9F1000F0ED00120FCF7D7F950B1A2
:1050C0008DE8400923460C9A0120696B32F0FEFFFF
:1050D000686B401C68630AB05046BDEC028BBDE8AB
:1050E000FE8F00008802002080030020840300203F
:1050F000880300207C0300208C03002020F10300A3
:105100000000804400B591B0402101A8FCF74DFD9E
:105110000120019040F2E67002900120039004907B
:10512000002005900690079001A90220FFF7F9FEE4
:1051300011B000BD10B50446B0F85A0004F13C01AE
:1051400004EB800090ED080A081F04F014FF94EDB2
:105150000E0AD4ED0F0A30EE600A21F08DF810EE41
:10516000100A1149884209DD94ED0F0ADFED0F0A9C
:1051700030EE200AD4ED0E0A30EE600AD4ED100AAB
:10518000F4EEC00AF1EE10FA01D284ED100A94EDAB
:10519000101AD4ED1C0A94ED1B0A22F0C5FB00285E
:1051A00000D0012010BD0000000034430000B443D3
:1051B00090ED060A3C4A10EE101AF7EE000A9142F2
:1051C00005DA002180F82810C0ED090A704710EEBA
:1051D000101A364A91420BDA01219FED351ADFEDA4
:1051E000351A80F8281030EE411A81EE210A11E0BC
:1051F00010EE101A304A914211DA0221DFED2F0A27
:105200009FED2F1A80F8281070EE600A80EE810A58
:10521000F0EE000A30EE200A80ED090A704710EE29
:10522000101A284A91420DDA0321DFED270A9FED7B
:10523000271A80F8281030EE600AC0EE010AB0EE9E
:10524000080A24E010EE101A214A91420DDA0421D6
:10525000DFED200A9FED201A80F8281070EE600A1A
:1052600080EE810AF1EE000AD4E710EE101AB1F1D7
:105270007E5F0FDA0521DFED190A9FED191A80F81C
:10528000281030EE600AC0EE010AB1EE040A30EEDA
:10529000800AC1E7062180F82810B1EE080A80EDE7
:1052A000090AC0ED060A70473D0A173FA4703D3F4A
:1052B0003D0A173F9A99193E3D0A573FA4703D3F5A
:1052C000CDCCCC3DAE47613F3D0A573F0AD7233D89
:1052D0003333733FAE47613F295C8F3D3333733FB8
:1052E000CDCC4C3D70B5D1ED000AD0ED271A90ED34
:1052F000292A9FED363A80EEA10A30EEC21ADFED80
:10530000320A71EEC21A05460E46C0ED2A1A31491C
:10531000DFED311A144610EE100A60EE202ADFEDA0
:105320002C0A884252EE830A01DCB0EE610A11EECB
:10533000101A2A4884ED080A814202DAB0EE610AA6
:1053400003E095ED2A2A81EE020A10EE901A8142BE
:1053500084ED060A03DB9FED220A60EE801A1046F8
:10536000C4ED071AFFF724FF206AB0F17C5F01DA71
:10537000002014E01B49884201DA01200FE01A499D
:10538000884201DA02200AE01849884201DA032043
:1053900005E01749884201DA042000E0052084F87E
:1053A0002900D6ED000A95ED280AF4EEC00AF1EEC8
:1053B00010FA07DD80EE801A9FED0E0A21EE000A3A
:1053C00084ED050A70BD00000000C842A60AC63F71
:1053D000B81E66429A99993E00000000BD37863596
:1053E0000AD7233C9A99193F3333333FCDCC4C3FF6
:1053F0006666663FCDCC744130B59FED300A002122
:105400002DED048B83B000F5C2648DED010A9FED94
:105410002C9ADFED2C8A8DED000A0A4600EB810301
:1054200003F50063491CD3ED610A0A2930EE800AB6
:10543000F4DB0A21DFED240AB0F8785B2AE000BF34
:1054400020EE208A9DED011A31EE081AB4EEC98AC9
:105450008DED011A9DED001A08EE081AF1EE10FA12
:105460008DED001A01DDB0EE489AB4EEE88AF1EE57
:1054700010FA01D2F0EE488A00EB810303F50063D5
:10548000491C93ED611AD3ED571A521C31EE611A83
:1054900031EE000A8D42D3DC91B26B4601AA0020A6
:1054A00007F0B2FD9DED000A84ED060A39EE680AA8
:1054B00084ED070A03B0BDEC048B30BD0000000092
:1054C000FFFF7FFFFFFF7F7FCDCCCC3D0FB410B53A
:1054D0002DED048B9DED1A8B9DED0C9B53EC182B41
:1054E00051EC190BFCF7E6FD04D253EC182B51ECF0
:1054F000190B03E053EC192B51EC180BFCF74EFC85
:105500009FED0D0B41EC180B53EC102BFCF7D2FD6B
:1055100009D253EC182B9FED0A0B51EC100BFCF742
:105520003DFC41EC180BB0EE480AF0EE680ABDEC09
:10553000048B10BC5DF814FB000000000080664086
:10554000000000000080764090ED100A10EE101A66
:10555000B1F1824F1BDD90ED201ADFED0D0A60EEF8
:10556000200A80EE810A10EE101A80ED180AB1F1BF
:10557000804F03DAB0EE000A80ED180A10EE101A20
:10558000044A914203DDB3EE0E0A80ED180A70471B
:10559000675585410000F04130B5B0F8323A032537
:1055A000194489B2A0F8321AB0F8343A5C00B4FB5E
:1055B000F5F48C4213D8B0F8364A03FB04112244A8
:1055C00092B289B2B1FBF2F1A0F8362AA0F8341AEF
:1055D0007D2904D90021A0F8341AA0F8361A30BD6C
:1055E00070B503462DED048B00F5C264154600200E
:1055F00003EB800606F5006601EB800296EDCE0A0D
:10560000D2ED000A30EE200A86EDCE0AD6EDCB0AA6
:1056100092ED000A40EE000AC6EDCB0A03EBC0068D
:1056200092ED000AD6ED7D0AB4EEE00AF1EE10FA32
:1056300001DD86ED7D0A92ED000AD6ED7C0AB4EE1E
:10564000E00AF1EE10FA01D286ED7C0A401C032834
:10565000CEDB91ED009A91ED028AD4ED020AD1EDF4
:10566000018A39EE480A70EE800AC4ED020AD4EDD0
:10567000030A40EE000AC4ED030AD4ED040AF4EE76
:10568000C00AF1EE10FA01DD84ED040A38EEC80A12
:1056900020F0F2FDD4ED050A5FF0000030EE200AA4
:1056A00084ED050A38EE880AD4ED1A0A70EE800AF5
:1056B000C4ED1A0AD4ED1B0A40EE000AC4ED1B0A21
:1056C00004EB800105EB800291ED0C0AD2ED000A9B
:1056D000401C032830EE200A81ED0C0AF0DBB0EE0E
:1056E000680A20F0C9FDF0EE408AB0EE480A20F0CA
:1056F000C3FDD4ED0F0A2946204648EE800AC4EDCA
:105700000F0A79EE080A94ED110A30EE200A84EDB2
:10571000110ABDEC048BBDE870400CF0B5BE000072
:1057200070B504462DED028B1546486894F8E214D6
:105730009FED328A00295DD094ED8C0A4FF47A7681
:1057400084ED8D0A90ED3C0A626A04F50C733146D3
:1057500004F5127023F032FC94ED8C0A04F51570F8
:105760009FED271ADFED270A20F02EF894F8E304C6
:10577000E0B194ED8C0AD4ED8E0A70EE600AC4EDAF
:105780008F0AD4ED8D0A94F8DD0470EE600A48B3F8
:10579000D4F8D804411E022913D801280ED094ED64
:1057A000900A30EE200A84ED900A0CE0012084F883
:1057B000E30494ED8C0A84ED8E0A13E084ED908A64
:1057C00001E0C4ED900A94ED330A94ED341A04F527
:1057D00080730F2230EE411A3146181D80EE810A87
:1057E00023F0ECFB94ED330A84ED340A286840F092
:1057F00002002860BDEC028B70BD000000000000BC
:1058000000409C4500007AC42DE9F04106462DED8C
:10581000028B84B000200C9D0C46009001900290F9
:105820009846174640212846FCF7BFF997ED090A2C
:1058300006F500608DED000A90ED550AB8F1000FF5
:105840008DED020A02D09FED320A1AE006F6E81149
:1058500006F66E2005F004F9052855D2DFE800F0C1
:105860000F0306090C009FED2B0A0AE09FED2A0AA0
:1058700007E0B2EE030A04E09FED280A01E09FED85
:10588000280A2A468DED010A6946B86B22F030FEDF
:1058900000281FDD94ED080AD5ED000A30EE200A3D
:1058A00084ED080A94ED090AD5ED010A30EE200ACC
:1058B00084ED090A94ED0A0AD5ED030A30EE200AB8
:1058C00084ED0A0A94ED0B0AD5ED020A30EE200AA7
:1058D00084ED0B0A9FED138A9DED000A2046B0EE81
:1058E000481AF3EE0E0A1FF06FFF9DED000A04F157
:1058F0001000B0EE481AF3EE0E0A1FF065FF04B078
:10590000BDEC028BBDE8F0819FED070AB9E700000E
:105910005C8F023FCDCC1C41CDCC2441CDCC5C4131
:105920009A99994000005C439A99B9402DE9F04753
:105930001E462DED028B94B092460D460446DFEDD7
:105940009F8A002700970197402103A80297FCF740
:105950002CF9402103A8FCF728F9DFF864829FEDB9
:10596000998A286A40450BDD00EE100A04F5327072
:1059700084EDB10AB0EE481AF3EE0E0A1FF024FFD0
:1059800094EDB60AD5ED040A9FED8F1A4FF07E59BB
:1059900000EE810A10EE100A84EDB60A484502DADC
:1059A00094F8E00400B38DED020AD4F8DC0240451F
:1059B00001DCD4F8C4020090C4EDB68AC4F8DC72ED
:1059C000C4F8E072C4F8E472C4F8E87294ED3E0AD8
:1059D00020F052FCDFED7D0ABAF1000F20EE200A24
:1059E00011D09FED7B0A2EE095ED080A04F5377083
:1059F000B0EE481AF3EE0E0A1FF0E6FE14B0BDEC4E
:105A0000028BBDE8F087208840F61E42A0F61E41BA
:105A10009FED701ADFED700AF2EE001A904240D04E
:105A200005DC11F1650007D0642861D136E0012959
:105A300037D002295CD143E010EE100A6749884252
:105A400004DAB0EE0C0A8DED010A53E010EE100AF4
:105A5000634988424CDB10EE100A6249884202DA40
:105A6000CDED010A46E010EE100A5F49884202DAE5
:105A7000CDED011A3EE010EE100A5C49884202DAD0
:105A8000B2EE040ADFE710EE100A5949884202DC40
:105A9000B2EE080AD7E79FED570AD4E7B1EE0C0A39
:105AA000D1E710EE100A5449884202DA9FED530AFA
:105AB000C9E710EE100A8842DADD9FED510AC2E70D
:105AC00010EE100A4F498842CADB10EE100A4E4908
:105AD000884202DBB2EE020AB5E710EE100A4B492B
