:020000040000FA
:1000000008AC0020F1180000F9180000FB180000EF
:10001000FD180000FF18000001190000000000009A
:1000200000000000000000000000000003190000B4
:100030000519000000000000071900000919000060
:100040006DA000000B190000F9C900000DB90000F7
:1000500021B900000B190000056700000B19000012
:10006000E1C900000B1900000B190000C9B2000023
:100070000B1900000B1900000B1900000B190000F0
:100080000B190000DDB200000B1900000B19000075
:1000900035B900000B1900000B1900000B19000006
:1000A0000B1900000B1900000B1900000B190000C0
:1000B0000B1900000B1900000000000000000000F8
:1000C0000B1900000B1900000B1900000B190000A0
:1000D0000B1900000B1900000B1900000B19000090
:1000E0000B1900000B1900000B19000000000000A4
:1000F000000000000B190000000000000B190000B8
:1001000000000000000000000000000000000000EF
:1001100000000000000000000000000000000000DF
:1001200000000000000000000000000000000000CF
:1001300000000000000000000000000000000000BF
:1001400000000000000000000000000000000000AF
:10015000000000000000000000000000000000009F
:10016000000000000000000000000000000000008F
:10017000000000000000000000000000000000007F
:10018000000000000000000000000000000000006F
:10019000000000000000000000000000000000005F
:1001A000000000000000000000000000000000004F
:1001B000000000000000000000000000000000003F
:1001C000000000000000000000000000000000002F
:1001D000000000000000000000000000000000001F
:1001E000000000000000000000000000000000000F
:1001F00000000000000000000000000000000000FF
:10020000DFF810D001F0ACFF0048004721C5010025
:10021000AFF3008008AC00202DE9F047904E054672
:1002200086B030689246894600287DD0D5E90078AE
:100230008C4A00233846414601F06CFB06F1580415
:100240000835C4E90C78014695E80D0058361C3590
:100250000DC695E80D000DC618358DCD86E88D00CC
:1002600095ED030A84ED0A0A95ED1B0A84ED0B0A4D
:1002700095ED060AB8EEC00A84ED0E0A95ED070A60
:10028000B8EEC00A84ED0F0A9FED770A002084EDD6
:10029000100AC4E91E1095ED0B0B703E84ED120B95
:1002A00095ED0D0B84ED140BE86B68344C3D01F0BB
:1002B00023FE44E9040195ED230A6A4604ED010A90
:1002C00095ED240A84ED000A95ED250A84ED010AD6
:1002D00095ED260A84ED020A95ED270A04ED020A3F
:1002E000D5E93201C4E9080100F007FABDF80200BF
:1002F000A076BDF80400E076BDF806002077BDF8D2
:100300000800607795F8AC0000EE109A207695F81A
:10031000A8006076B8EEC00A683C03948DED050A2B
:10032000B089ADF8100000E007E0524603A930683C
:1003300013F090FF06B0BDE8F0874FF0FF30F9E70B
:100340002DE9F041054646488AB048300C46007A0F
:10035000C00769D05C21454801F08DFB434A214626
:100360002846FFF759FF061E5EDD404DDFF800818D
:100370002F786C78A4B32421684601F07CFB14F03C
:100380000C004FF001010FD000EE100AAA6C009192
:10039000B8EEC00A8DED010A92ED000A8DED020A59
:1003A00092ED010A8DED030AE00600D50691A00743
:1003B00003D5286C04914068059014F0600205D0C4
:1003C0000220920600D50120CDE90710C5F858D0CB
:1003D00026490C2011F0D2FD014640460FF020FDC9
:1003E000112F20D2DFE807F01F090909090923238B
:1003F000262929092C2F3235380019484FF47A71F3
:10040000C06890FBF1F04843884203D0A0F5D85172
:10041000583908D11549012011F0B0FD010002D072
:1004200040460FF0FDFC30460AB0BDE8F0810F49B0
:100430000220F1E70D490320EEE720F0CFF8F2E7C4
:100440000A490520E8E709490620E5E707490920A8
:10045000E2E706490A20DFE704490B20DCE7000059
:10046000C806002040420F0000000000442B00207E
:100470000010000130B5194A8BB0127AD20724D08F
:10048000164A6C46083A156835B3002208300792C0
:10049000089209920A920DC800EE101A0DF11C0C78
:1004A0001C218CE80D00B8EEC00A20468DED0A0A2A
:1004B00001F0E1FA224607A9284616F0ADF9002816
:1004C0000ADD0098022803D006E000200BB030BD02
:1004D000694603480FF0A4FC0120F7E7B8070020A5
:1004E0000210000170B5034613488AB0007AC007B5
:1004F00020D0114807AA08380068D0B1002408337A
:10050000009401940294039468CB00EE101A8DE8D5
:100510006800B8EEC00A69468DED030A0794089496
:10052000099417F0A1FA002803DD07A903480FF08A
:1005300077FC01200AB070BDCC0700200410000138
:1005400070B50346124888B0007AC0071ED0104824
:1005500007AA0C380068C0B1002408330094019445
:100560000294039468CB00EE101A8DE86800B8EE90
:10057000C00A69468DED030A079413F0BFFC0028FA
:1005800003DD07A903480FF04BFC012008B070BD44
:100590000C08002005100001F0B5584C3C25B0FBBC
:1005A000F4F304FB1303B0FBF4F0B3FBF5F6002403
:1005B0001460546005FB1636946056814FF46166F2
:1005C000B3FBF6F706FB1737B7FBF5F5B3FBF6F30E
:1005D0001581D3804A4B40F2B2711D69854206D124
:1005E000988810801889908098895080F0BD642583
:1005F0004FF4B77E40F26D16AF00186115E000BFF2
:100600005FEA817C0DD191FBF5FC05FB1C1CBCF164
:10061000000F0ED191FBF7FC07FB1C1CBCF1000F77
:1006200007D0B446A0EB0C00491C5FEA817C02D0E5
:100630000FE0F446F6E791FBF5FC05FB1C1CBCF152
:10064000000F10D191FBF7FC07FB1C1CBCF1000F45
:1006500009D0B4468445D3D91FFA81FCA2F800C062
:100660005480284E20E0F446F4E700BF5FEA817E24
:100670000DD191FBF5FE05FB1E1EBEF1000F16D13C
:1006800091FBF7FE07FB1E1EBEF1000F0FD04FF0CF
:10069000000E00BF0EEB4E0E06EB0E1E5EF824E0C1
:1006A000641CA0EB0E0054808C0703D00CE04FF0CC
:1006B000010EEFE791FBF5F405FB1414DCB991FB97
:1006C000F7F407FB1414B4B15FF0000404EB440426
:1006D00006EB041E54885EF824E08645C6D9A1B214
:1006E000491C89B2401C518080B29080C3F804C07C
:1006F000C3E90201F0BD0124E8E74DE780510100A4
:1007000030080020A46502002DE9F04105460E46A0
:100710001F4614465821104601F0ADF9F74904F17F
:10072000080801F158000DC888E80D0001F15800D3
:100730004FF07E52C368934218D190ED000AD0ED7D
:10074000040A30EE200A84ED050A90ED010AD0ED8E
:10075000050A30EE200A84ED060A90ED020AD0ED7B
:10076000060A30EE200A84ED070A06E0583104F14B
:10077000140891E80A1088E80A10C169914203D16F
:1007800090ED080A84ED080A0120C4E90007C4E9D5
:1007900012562046BDE8F04100F0DEBD70B5D84DE0
:1007A000002300BF03EB830405EB840431B101296E
:1007B00002D002290AD103E0666802E0266800E060
:1007C000A668864202D10120146070BD5B1C0B2B11
:1007D000E8D34FF0FF3070BD2DE9F0410E46DDE962
:1007E000064107461546204601F045F936B3012E6D
:1007F00022D12846012F64D0B7EE000A022F2AD05A
:10080000032F38D0042F5FD00B2F5AD00C2F5BD082
:10081000152F5CD0162F6BD0172F7BD01F2F75D0C4
:10082000202F09D1002E72D0012E05D10168216040
:100830004068A06084ED010ABDE8F0812046D9E758
:1008400095E80E0080E80E00F6E7012EF4D107C807
:1008500084E80700F0E746B1012EEDD190E80E00E4
:1008600084E80E00C068206214E095E80E0080E87D
:100870000E00296A3AE086B1012EDDD10EC884E867
:100880000E000EC804F1100585E80E000068206215
:1008900084ED030A84ED070ACEE795E80E000EC04A
:1008A00005F110010EC90EC0296A47E095E80E0057
:1008B0000EC02DE0012EBFD10EC884E80E0007C87F
:1008C0001CE0002EC1D1BBE7002EF3D1EEE746B10C
:1008D000012EB1D190E80E0084E80E00C068E060FF
:1008E000AAE795E80E0080E80E00E968C160A3E77A
:1008F00076B1012EA0D107C8BFEE000A04F11003A3
:1009000083E8070084ED030A96E703E00FE017E0B1
:10091000103595E736B1012E8ED10EC80EC402C82F
:1009200002C494E70ECD0EC002CD02C088E726B106
:10093000012E81D1006820607EE7296801607BE795
:1009400029680160A968416076E72DE9FC410E46FF
:1009500015460746002100F01DFB411C0AD06949DD
:1009600051F8204034B1D4E90501814205DB394614
:1009700065A020E00020BDE8FC81A06830B92A46CF
:100980003146204618F0B2FEA06890B10146A26937
:100990002069E76802FB0011CDE9001032462B46C2
:1009A00000213846FFF718FFA069401CA061012014
:1009B000E1E739465FA022F087FBDBE72DE9FC5F2A
:1009C0009A46504BDDF834E093461E683EB3B26958
:1009D0002AB3441C23D053F8205005B3A86900283B
:1009E0001DDD00EE102A0024F8EEC00A00EE100A09
:1009F000B8EEC01A80EE810A15E000BF00EE904A02
:100A0000F8EEE00A60EE200AFDEEE00A10EE903A01
:100A10005B1E8B4206D1641E01D3A04206DC00207F
:100A2000BDE8FC9F641C8442E8DDF8E75FEA0E0045
:100A30001BD0D6E90A30521EA2FB037CD6E90898E7
:100A4000D61706FB03C602FB0066B9EB070268EB8C
:100A50000608A3FB016C00FB01C0CF1703FB0700D6
:100A6000B11840EB0800CEE90010BAF1000F18D021
:100A7000234E3C3E306928B9402022F071FB3061A2
:100A80000028CDD02B69A868316903FB0402E8680F
:100A90004024CDE900140121FFF79EFE3169CAF818
:100AA00000100C9808B140210160BBF1000F01D08B
:100AB000CBF800500120B3E72DE9F04700251F4691
:100AC00091468A464FF001082E460A286DD2DFE88B
:100AD00000F005090D113F4245494D69074D242499
:100AE000583546E0054D1C247C3542E0054D1C245C
:100AF000803D3EE0034D0C24643D3AE0702400202C
:100B00008001002088250020464154414C20455258
:100B1000524F523A20256420726174652069732017
:100B2000686967686572207468616E206163630A32
:100B300000000000464154414C204552524F523A69
:100B4000202564206669666F5F657272310A000055
:100B50000424F74D0DE01024F64D0AE0F54E48242C
:100B6000103606E0F24D04242D1D02E0F04D042461
:100B70000835BC420ADD1DB12146284600F07BFF46
:100B80001EB12146304600F076FF3C4625B1224694
:100B90005146284600F056FF26B1224649463046C7
:100BA00000F050FF4046BDE8F0874FF00008F9E73D
:100BB000F8B51F460D46DDE9061316460446002229
:100BC0003846FFF779FF6A4601213846FFF7E6FD10
:100BD000401C08D000980769002F04D0002332463B
:100BE00020462946B847F8BD2DE9F043D24893B0D6
:100BF00008AC0EC884E80E0007C80DAB83E80700F8
:100C0000CC4858300468ECB3D4E90610884257DA6F
:100C10000DF1200806AE02AF8146002503AB58F85F
:100C20002500CDE900760CAA4946FFF7C7FED8B1EA
:100C30000C98D0E90C23DDE90601821A71EB03025E
:100C40000AD3DDE90232CDE900230DAA52F825309E
:100C5000B84AC03AFFF7ACFFDDE906120C98C0E9CC
:100C60000C12C169491CC1616D1C032DD6D3CDE99D
:100C70000076002003AB0CAA4946FFF79FFED8B1CF
:100C80000C9800E01CE0D0E90C23DDE90601821A93
:100C900071EB030208D3DDE90232CDE90023A54A56
:100CA0000023C03AFFF784FFDDE906120C98C0E983
:100CB0000C12C169491CC161D4E906108842ABDB42
:100CC00018F078FD13B0BDE8F08370B50D46002430
:100CD00010B1012807D010E0022000F013FB00B192
:100CE00001242CB909E0102000F00CFB28B10224EB
:100CF000284622F09DF900B10024204670BD2DE960
:100D0000FF4FADF5077D15460446DDF850A200F013
:100D1000EFFA8046894621465046FFF7D6FF070086
:100D20004FF000004AD0889E4390429042AA43A9C7
:100D3000012022F04BF9429808B9102042904FF060
:100D4000060B062C0DD165B1439808B9CDF80CB14E
:100D50000A20DDE94212009002AB284618F064F93F
:100D600012E08EB1202000F0CDFA18B15846CDF82F
:100D70000CB103E0439808B903204390024602AB4C
:100D80003046429918F082FD02AB6CA144A8439A08
:100D90000CF0B6FE6C4A00234046494600F0EBFDDD
:100DA00044A9634ECDE900102C3E3B46224667A085
:100DB000716A22F089F9706A401C706200F0C7FA0B
:100DC00000280DD0BAF1000F03D0BAF1010F02D004
:100DD0000AE0042000E0102000F09CFA20B100207E
:100DE0000DF50B7DBDE8F08F2046002100F0D2F814
:100DF0005049421C01F158010DD051F8200050B16A
:100E0000006840B120468A9A8899FFF79EFDF0B9A4
:100E10004FF0FF30E4E709682046E9B1002100F017
:100E2000B9F8401C18D0424902202C390968CDE994
:100E300002010020CDE9000002460346204618F0DA
:100E4000D3FC20468A9A8899FFF77FFD08B10220DB
:100E5000C6E76FF00100C3E72A4620468A9B8899BF
:100E6000FFF72AFE08B10120BAE76FF00200B7E7EA
:100E700038B500210468009100F14802011D50239B
:100E80002046FFF73CFF012803D0002800DB0020AC
:100E900038BD092C0ED020466A460121FFF77EFCA2
:100EA000401CF4D000980068411CF0D0012120F0D3
:100EB000DFF8ECE70A201CF003F9E8E7F8B506468E
:100EC00000F016FA04460D466A4600213046FFF748
:100ED00065FC401C09D000980669002E05D0154A13
:100EE0000023C03A20462946B047F8BD10B501247A
:100EF000204600F045F810B12046FFF7DFFF641CE4
:100F00000B2CF5DB002000F03BF810B10020FFF7C0
:100F1000D5FF074900202C39886310BD10B501F6B4
:100F2000FD71B1F5483123D0012927D123E000001C
:100F30007001002030250020145502006466442A08
:100F4000256428257329000040420F005441473D85
:100F500043534920534E2825642953542825642996
:100F600049542825642925735453282564290000F1
:100F7000FFF73AFE02E01046FFF7A0FF002010BD89
:100F8000012181400C48806B014201D00120704753
:100F90000020704738B50C466A460121FFF7FEFB7A
:100FA000401C06D014B10098C0682060009880688A
:100FB00038BD4FF0FF3038BD4401002008460968B5
:100FC000032901D0022901D11CF0DEB870472DE9B8
:100FD000F041604C606900BB00F08AF94FF47A720E
:100FE000002300F097FC3222002300F093FC10460F
:100FF000194600F020FF00EE100A9FED571AC0EED0
:10100000010AB7EE000A30EE800ADFED540A20EE46
:10101000200ABCEEC00A84ED050A206B0025504F63
:1010200000680326012812D002280ED100F060F9D2
:101030003A46002300F06EFC6269C2EB0212120114
:10104000101A8D4101D2206B0660BDE8F08100F0DE
:101050004FF93A46002300F05DFC62699200EFE729
:1010600070B500F045F905460E46082000F04AF933
:10107000384C68B13A4A00232846314600F04AFC11
:10108000024638A0A16922F01FF8A069401CA061A7
:10109000E06908B1002070BD01200025E061FFF784
:1010A00096FF206B0068032805D0012000F04AF964
:1010B00023F0B4FA07E0002000F044F907E000BF95
:1010C00000F0D1F8054300F008F90028F8D100201D
:1010D000E061284670BD2DE9F041074600F008F9AF
:1010E00005460E46082000F00DF91A4C70B11C4A56
:1010F00000232846314600F00DFC03463A461FA067
:10110000216A21F0E1FF206A401C2062606A08B178
:1011100000209AE701206062FFF759FF206B00680A
:10112000032812D0012000F00DF9012000F032F95F
:10113000FFF7DCFE3A462846314600F021F9002050
:1011400000F028F9002060627FE7002000F0FAF844
:10115000F8E70000600200200000C84200BA5B4AC5
:1011600040420F005441473D4D505220534E2825D8
:101170006429545328256429000000005441473D48
:101180004D50523220534E28256429444954282575
:1011900064295453282564290000000000B5094A39
:1011A00008680B7997B0105C01229A40104206D073
:1011B0005822684600F046FC684609F0F7FF17B071
:1011C00000BD0000582600204448006800F01EBA08
:1011D000424810B50068002809D0404800F0F9F9ED
:1011E000044601463D48001D00F0E2F9606810BD6C
:1011F000FEB53A4C0090CDE90112074660681546ED
:101200000E4668B1201D00F0E4F9010012D04868D4
:101210000760C0E90165204600F0CAF90120FEBD63
:101220006A460C21206812F067F921680029F5D17F
:101230002060F3E70020FEBD2949C0F3072001EB41
:1012400000107047D4E770B514460D460646FFF708
:10125000BFFF002806D001683160816821604068C6
:101260002860012070BD2DE9F0418AB000252C4690
:101270006A4603A902A80095FFF7E5FF60B1009850
:10128000010C00D00020009050B1FFF7D5FFDDE940
:101290000212836898471EE020460AB0BDE8F0813C
:1012A000DDE9026080460E48CDE9065610380D4F44
:1012B00080680D4A06A900F097F9040001D128467C
:1012C000EBE76568424630462968B847246814B1A0
:1012D0006868B042F5D00120DFE775E738030020E9
:1012E000E82600203B2801003FA101000448704788
:1012F0000348006900B10047002001467047000024
:101300002829002013490968014201D001207047B3
:10131000002070470F494968014201D00120704701
:10132000002070470B498968014201D001207047B5
:10133000002070470749C968014201D00120704769
:1013400000207047034900B10120C861704701487F
:10135000C06970474C03002070B506460748D0E9C5
:10136000004506E0626831469068526890472468FC
:101370006D1E0CB1002DF5D1002070BD7003002052
:101380007E4BC3E90001A3F1400011464068C368E9
:101390007A48184779494039086370472DE9F04188
:1013A000764E0C46403E0546D6E90E120020034616
:1013B00051EA020708D0681A64EB02014FF47A720E
:1013C000002300F0A7FA0B460022C6E90E5411468E
:1013D000121A994105DA024628462146BDE8F04135
:1013E000CEE7BDE8F08170B50C46C06800F0C0F8EB
:1013F00000282AD06068002827D121685F4D0B297A
:101400005AD023DCA5F14000062942D011DC012985
:101410002BD0022919D1C16A002916D00021C1623E
:101420005748006812F09EFCBDE8704055A021F0BE
:101430004BBE082934D00A2907D194ED020A85ED64
:10144000160A94ED030A85ED170A70BD0F2938D0EE
:101450001E294FD01F297CD02129F6D194ED030AF3
:10146000BDEEC00A85ED2B0A70BD083448300ECCA5
:101470000EC00ECC0EC094ED000A203C85ED080A8B
:1014800050F8300C0028EFD1D4E91201BDE87040CB
:1014900084E7083464300ECC0EC094E80E0008E0F7
:1014A00008347C302ECC80E82E0094E80E003348BF
:1014B0004C3080E80E0070BD94ED020A85ED180AEC
:1014C00070BD94ED020ABDEEC00A85ED190A94EDD7
:1014D000030ABDEEC00A85ED1A0A94ED040ABDEEBA
:1014E000C00A85ED1B0A94ED050ABDEEC00A85ED24
:1014F0001C0A70BD94ED030AD4ED040A30EE200AF4
:1015000010EE100A00F0F8FCE5E91E0194ED050A62
:10151000D4ED060A30EE200A10EE100A00F0ECFCC2
:10152000C5E9020194ED070A85ED040A94ED080A65
:1015300085ED050A94ED090A85ED060A94ED0A0A7F
:1015400085ED070A94ED0B0A85ED080A94ED0C0A67
:1015500000E006E085ED090A94ED0D0A85ED0A0A22
:1015600070BD94ED020ABDEEC00A85ED2A0A70BD79
:10157000007D002800D0012070470000E803002013
:10158000C85B02006C706D322065786974000000E1
:1015900000B5086891B04C2805D1096D034B6A4627
:1015A00000200EF0F3FD11B000BD00002901010084
:1015B00018B111B102681AB105E04FF0FF30704761
:1015C000016004E0024610680028FBD11160002091
:1015D0007047010006D0086820B102680A60002147
:1015E000016070470020704770B5154604000E4634
:1015F00006D02EB125B16068A84718B1204670BD4D
:10160000002070BD2A4631462068EEE700B500286C
:1016100003D00068FFF7FAFF401C00BD2DE9FC4134
:1016200004460E46C0F8D010D4E90001484A002311
:1016300000F070F918F0C6F9464FC4E93201387A63
:101640008008C00703D0314620460EF0AAFB94ED77
:10165000180AB5EEC00AF1EE10FA1CD3B5EEC00AB6
:10166000F1EE10FA17DC94ED080AB5EEC00AF1EEBF
:1016700010FA10D3B5EEC00AF1EE10FA0BDC94EDBF
:10168000170AB5EEC00AF1EE10FA04D3B5EEC00A9F
:10169000F1EE10FA01DD84ED2E0AE06E002804DD83
:1016A000216F002901DD00F057F804F1B402111F89
:1016B000606E00F07CF8274D283D78B10020019045
:1016C000D4F8B0000090D4F8B4000190E8686A46FD
:1016D00040F2EB7143686FF000409847286931464B
:1016E000C2682046904720460EF09CFCD4F8D0609B
:1016F00050B3387AC008C00703D0314620460EF0F8
:10170000E5FC28683146C268204690476868314643
:10171000C26820469047A8683146C2682046904774
:10172000E8683146C2682046904768693146C26819
:1017300020469047A8693146C26820469047E8692C
:101740003146C268204690470120BDE8FC81000078
:1017500040420F00680600202B4A00239360D360AC
:10176000A0F11E03BE2B00D85061A1F11E00BE28BF
:1017700000D89161704770B5234CE568A36923B127
:101780002E0001D0AB4200DA1D466669A3681EB187
:101790009E4206DD334604E01AB922699A4200DD12
:1017A000134600B10360002900D00D6070BD70B514
:1017B0000E46A0F11E01144C1546BE2910D8A16892
:1017C000002900DCA060E168002900DCE060A1687D
:1017D000884201DDA06003E0E168884200DAE06051
:1017E000002229463046FFF7C6FF3068216888424C
:1017F00003D129686268914204D020602868606043
:10180000012070BD002070BDD807002030B4044610
:1018100054E8000F0D4644E80053002BF8D1156042
:1018200030BC704730B4044654E8000F40EA01056C
:1018300044E80053002BF7D1156030BC704730B43A
:10184000044654E8000F00EA010544E80053002B69
:10185000F7D1156030BC704730B4044654E8000F2F
:1018600080EA010544E80053002BF7D1156030BC35
:10187000704730B4044654E8000F00EB010544E81B
:101880000053002BF7D1156030BC704730B40446CC
:1018900054E8000FA0EB010544E80053002BF7D1FA
:1018A000156030BC704770B404464FF0000054E837
:1018B000006F0D68AE4207BF44E80023012044E8F2
:1018C00000630E60002B1CBF0020F0E770BC704767
:1018D00030B4044654E8000F88422CBF451A054630
:1018E00044E80053002BF5D1156030BC7047000070
:1018F0000648804706480047FEE7FEE7FEE7FEE7AA
:10190000FEE7FEE7FEE7FEE7FEE7FEE7B1C7000001
:10191000010200002DE9F05F0546002092469B463B
:1019200088460646814640241BE0284641464746F5
:10193000224600F060F853465A46C01A914110D32F
:1019400011461846224600F047F82D1A67EB0108A9
:101950004F4622460120002100F03EF817EB000917
:101960004E41201EA4F10104DFDC484631462A46E0
:101970004346BDE8F09F2DE9F0410024061B2546B3
:1019800071F1000605DA01240027D0EB070067EBB0
:101990000101161E73F1000605DA0027D2EB0702DB
:1019A000012567EB0303FFF7B5FF86460E46174692
:1019B0009C46AC4204D00025D0EB050E65EB010639
:1019C00024B10020D2EB000760EB030C70463146D7
:1019D0003A466346BDE8F081202A04DB203A00FA4B
:1019E00002F1002070479140C2F1200320FA03F376
:1019F000194390407047202A04DB203A21FA02F074
:101A00000021704721FA02F3D040C2F12002914038
:101A1000084319467047000000487047686F02008D
:101A20000649074A0868504343F2390210440860E7
:101A300040087047014908607047000070080020A6
:101A40006D4EC64140EA01039B0703D009E008C977
:101A5000121F08C0042AFAD203E011F8013B00F873
:101A6000013B521EF9D27047D2B201E000F8012BBF
:101A7000491EFBD270470022F6E710B513460A460E
:101A800004461946FFF7F0FF204610BD421E12F82B
:101A9000013F002BFBD111F8013B02F8013B002B69
:101AA000F9D1704710B5044604E00B7800F8013B0B
:101AB00003B1491C521EF8D2204610BDCAB2401EC6
:101AC00010F8011F8A4202D00029F9D10020704786
:101AD000421C10F8011B0029FBD1801A704710B579
:101AE000002200E0521C835C8C5CA34201D1002BDD
:101AF000F8D1D8B2E1B2401A10BD30B5044600208A
:101B0000034600E05B1C934203D2E05CCD5C401BCB
:101B1000F8D030BD034611F8012B00F8012B002A44
:101B2000F9D1184670472DE9FE4F804681EA03003F
:101B3000C00F0C46009021F0004123F00045B8EBA7
:101B40000200A94105D24046214690461C460B465C
:101B5000024623F00040104347D0270DC7F30A0088
:101B6000C3F30A510290401A019040286BDAC3F384
:101B7000130040F4801B0098924620B10023D2EB62
:101B8000030A63EB0B0B01985946C0F14002504623
:101B9000FFF722FF06460D4650465946019A00F0CF
:101BA00021FA10EB08006141002487EA115284EA0F
:101BB000E7731A4340D0009A62B3019A012A4FEAB0
:101BC000075215DC001B61EB02014FF0004202EAF4
:101BD0000752CDE90042001C41F5801132462B46E8
:101BE00000F058FA03B0BDE8F08F40462146F9E70F
:101BF000001B61EB0201001C41F5801300185B41E2
:101C00002018A2F5001747EB030140EAD570B6197A
:101C10006D4111E06D084FEA360645EAC0754FEA9E
:101C20000752001B61EB0201001C41F580114908BD
:101C30004FEA30000019514132462B4603B0BDE84F
:101C4000F04F00F018BA0098012240000023D0EBBA
:101C5000020263EBE073009821464FEAE074B8EBB0
:101C6000000061EB0401E9E783F000435BE781F0EA
:101C7000004158E72DE9FE4F81EA030404F00044D7
:101C800021F0004100944FF0000B23F0004350EA94
:101C900001045ED052EA03045BD0C3F30A54C1F3DB
:101CA0000A552C44A4F2F3340194A0FB0254C1F36E
:101CB000130141F48011C3F3130343F4801301FBB8
:101CC000024400FB034E840A970A44EA815447EA1F
:101CD0008357A4FB076802958D0A05FB07854FEA29
:101CE000932C04FB0C542705029D4FEA065847EA43
:101CF0001637B5EB08056EEB070C870E920E47EA18
:101D0000811742EA8312A7FB0201B6EB0B0164EBD9
:101D100000042B0D43EA0C335E1844EB1C50DA46EA
:101D20005146E7FB0201C5F313044FEA0B3343EAC4
:101D300014534FEA0432019C43EA0603A4F10C0455
:101D40000294009CCDE900B400F0A4F903B0BDE812
:101D5000F08F00200146F9E72DE9F04D81EA0304F8
:101D600004F0004B21F0004514464FF0000A23F028
:101D7000004150EA050220D054EA01021DD0C5F30B
:101D80000A570246C5F31303C1F31300C1F30A5601
:101D900040F4801543F48013A7EB0608101BD646C9
:101DA00008F2FD3873EB050002D308F1010801E0E9
:101DB00092185B41B8F1000F03DA00200146BDE83C
:101DC000F08D00204FF48011064684460EE0171B6C
:101DD00073EB050705D3121B63EB050306434CEABF
:101DE000010C49084FEA300092185B4150EA0107A4
:101DF000EDD152EA030012D082EA040083EA050121
:101E0000084305D0101BAB4106D20122002306E097
:101E100000224FF0004302E06FF0010253101AEB72
:101E200006004CEB085110EB0A0041EB0B01BDE83A
:101E3000F04D00F020B930B4044696230800214646
:101E400004D0B62330BC002200F0E7B820460021C1
:101E5000F8E70EB5C10F80EAE0700844CA07002118
:101E600040F233438DE80E000A460B4600F012F9AB
:101E700003B000BD0EB540F2334102910021CDE91F
:101E800000110A460B4600F005F903B000BD20F032
:101E90000040C20DC0F3160040F400007F2A02DAB1
:101EA0000020014670470021962A03DCC2F1960209
:101EB000D0407047963AFFF78FBD70B5C1F30A5214
:101EC00001F000450024C1F3130140F2FF3341F457
:101ED00080119A4201DA002070BD40F233439A42E9
:101EE000A2F2334203DC5242FFF785FD00E090404E
:101EF0002C43F1D0404270BD00F0004230F0004071
:101F00000AD0C10D01F56071C0F3160042EA01511B
:101F1000C208400711437047002001467047000087
:101F200030B5041E71F1000404DB4FF00044404260
:101F300064EB0101141E73F1000405DB1C464FF035
:101F40000043524263EB04038B4208BF824230BD20
:101F500030B5041E71F1000404DB4FF00044404230
:101F600064EB0101141E73F1000405DB1C464FF005
:101F70000043524263EB0403994208BF904230BDD4
:101F800001F0004330B421F0004150EA010206D0D4
:101F90000A0DA2F56072C1F31301002A02DC30BC05
:101FA00000207047440F44EAC104C100E01830BC6F
:101FB00000EBC25000F028B830B50B4601460020B7
:101FC0002022012409E021FA02F59D4205D303FAFB
:101FD00002F5491B04FA02F52844151EA2F101027C
:101FE000F1DC30BD202A06DBCB17203A41FA02F0A3
:101FF00043EAE07306E041FA02F3D040C2F1200266
:1020000091400843194670470029A8BF7047401CFB
:10201000490008BF20F00100704710B4B0FA80FCFE
:1020200000FA0CF050EA010404BF10BC704749B13B
:10203000CCF1200421FA04F411FA0CF118BF0121AB
:1020400021430843A3EB0C01CB1D4FEA00614FEA8B
:10205000102042BF002010BC704700EBC35010445A
:102060000029A4BF10BC7047401C490008BF20F0E5
:10207000010010BC704710B5141E73F1000408DA9B
:10208000401C41F1000192185B411A4301D120F03C
:10209000010010BD2DE9F04D92469B4611B1B1FAF9
:1020A00081F202E0B0FA80F220329046FFF794FC11
:1020B00004460F4640EA0A0041EA0B0153465A46DD
:1020C000084313D0114653EA010019D0C8F1400269
:1020D0005046FFF790FC05460E465046594642468C
:1020E000FFF77AFC084305D0012004E0204639467A
:1020F000BDE8F08D0020054346EAE0762C433743E7
:102100000A986305E40AA0EB08000022FD0A44EAED
:1021100047540A3002D500200146E9E701051019AD
:102120006941DDE9084500196941BDE8F04DA2E7C4
:10213000C1F30A52C1F3130140F2FF3341F480119D
:102140009A4202DA00200146704740F233439A4235
:10215000A2F2334202DC5242FFF74DBCFFF73CBC17
:10216000064C074D06E0E06840F0010394E80700E4
:1021700098471034AC42F6D3FEF746F89874020044
:10218000B874020070B58C1810F8015B15F00703E5
:1021900001D110F8013B2A1106D110F8012B03E000
:1021A00010F8016B01F8016B5B1EF9D12B0705D408
:1021B0000023521E0DD401F8013BFAE710F8013B51
:1021C000CB1A921C03E013F8015B01F8015B521E6D
:1021D000F9D5A142D8D3002070BD00002DE9F0410F
:1021E000054608880E464FF0FF34142811D11648D2
:1021F000A860042020F0B4FFE86050B10021016025
:10220000E8683168114A01602946114807F0A0F9D1
:1022100010B12046BDE8F0810E4F0024A7F17808E8
:1022200004EB440108EB810207EB04137188284694
:102230001EF052FE10B16FF00300EBE7641C0A2C95
:10224000EED30020E6E70000ADC7000091150000C6
:1022500070050020EC5D020010B506200EF084FE33
:10226000002010BDF0B5002381F89830B0F864600C
:1022700003227400B4FBF2FC90F86A700125BC459F
:1022800002D281F898502CE0B4FBF2FC90F869E09F
:10229000F44501D2022022E0B4FBF2F490F868C0C9
:1022A000644518D2042481F8984090F8684066008C
:1022B000B6FBF2F790F86E60B74202D290F87170F8
:1022C00037B9B4FBF2F4B4420BD990F8710040B9BD
:1022D00081F8982005E0B7EB960F02D2052081F82F
:1022E000980091F8980091F8D140A04201D10122C4
:1022F00000E0002210FB04F4142C0ED00024224332
:102300000DD0D1F8D420521CC1F8D420032A0ADD04
:1023100081F8D05081F8D20005E00124EFE781F880
:10232000D030C1F8D43081F8D100F0BD70B5CA68A2
:1023300000F18403B2F17F5F01DA012200E00322A1
:102340000568446F2D1F132D2BD2DFE805F00A0E10
:102350000E0E0E12161627232A2A2A2A2A2A2A1B8A
:102360001F00C56A1544C5621BE0456915444561F7
:1023700017E085691544856113E0C5692544154456
:10238000C5610EE0056A154405620AE0456A154418
:10239000456206E0856A1544856202E005691544D8
:1023A0000561002C04DDC56A2C1BC462002444674F
:1023B000486938B1012809D0022802D1986910442F
:1023C000986170BD18691044186170BD5869104457
:1023D000586170BD30B5C38C458B1C46D0ED020AE8
:1023E0006B43E1B110EE901A254A914202DD818CD7
:1023F000491C8184818C828B914205D900219FEDFB
:10240000210A80ED020A818400EE103AD0ED020A22
:10241000B8EEC00A30EE200A80ED030A30BD7AB96A
:10242000418CD0ED031A01EE101AB8EE411AF4EE09
:10243000C11AF1EE10FA03D200EE101AB8EE400AFB
:1024400030EE200A00EE903A80ED020AF8EEE00A43
:1024500070EE800AC0ED030A00EE905AF8EE600AB2
:10246000B4EEE00AF1EE10FAD8DD00EE905A641CEA
:10247000F8EE600A30EE600A80ED020AC48430BDD6
:10248000BD3786350000000090F8AE0701F5806189
:10249000032808D291EDCC0A81EDCB0A9FED0A0A00
:1024A00081EDCC0A704791EDCB0AD2ED0B0A30EEEC
:1024B000200A81EDCB0A91EDCD0AD2ED0B0A30EE68
:1024C000200A81EDCD0A7047000000002DE9F0419F
:1024D00000F5F4642DED028B0F46054600F2CC7634
:1024E000217890F8B60784B000297AD18846DAB30B
:1024F000A08820B1E17895F808080844E070E178F8
:10250000A88B814203D9A4F8048084F80380307832
:10251000002866D0032107F1200011F025FBB0EE62
:10252000408A97ED080AB1EE400AC0EE080AB0EE04
:10253000600A11F075FD10EE100AFFF7DDFC9FED4B
:102540002E1B53EC112BFFF795FBFFF719FD08EE3F
:10255000900A97ED080A12F0F1FEB4EEC80AF1EE07
:1025600010FA0DDD01200CE0FFE718B9A188688C96
:10257000814201D395F80808A1880844A080C6E7E5
:102580000020E18891B188B118EE100AFFF7B4FC81
:1025900005460E46386AFFF7AFFC0A468DE865002F
:1025A000032217A110460CF0F3FF21E0B08800EEE3
:1025B000100AB8EE400AB4EEE80AF1EE10FA0CDCAC
:1025C00000EE100ADFED170AB8EE400A30EEC00A3E
:1025D000B4EEE80AF1EE10FA08D295F808080844BB
:1025E000E08004B0BDEC028BBDE8F0810029F8D09A
:1025F000A4F80680F5E70000F8C1631ADCA54C409A
:10260000522F4125643A204153542C696E76616CF7
:10261000696420616E676C652C252E32662C252E30
:1026200032660000000034432DE9F0470468C0B072
:102630000D46064692464FF00008242136A8D4F8ED
:10264000B094FFF718FAD02102A8FFF714FA207807
:1026500004280DD004202070304608F0FBFF3046DF
:1026600008F036FF042204F27441304606F0DCF92B
:10267000002084F81C0A286804F5806790ED0A0A97
:10268000D7EDB60A30EE600A12F058FE10EE100ACE
:10269000274988420DDD012084F81C0A286852462B
:1026A000294690ED0A0A304687EDB60AD9F81C3063
:1026B00098472B683AAF30680ECB87E80E007169F7
:1026C0003E9190F80F168DF8D81090F81C0A8DF8EE
:1026D000D90095ED020A04F5C26304F5CF62BDEEA0
:1026E000C00A36A98DED3D0A286890ED0E0A02A8B1
:1026F0008DED390A0090706812F072FBC82812DB69
:10270000524602A9204600F0E7FADDED1A1A9DEDC7
:102710001B1ADDED190A9DED180A04F2FC4009F0C0
:102720004AFC4FF0010840B04046BDE8F087000089
:10273000BD378635F0B593B00F460646056814469A
:102740002C216846FFF797F90BAA3946304600F06E
:102750004FF86A460BA9F06911F078FC074605F6B8
:102760001D21F06911F0C8FC0A9860622022201D2A
:1027700002A9FFF767F9002F0CDDDDE9001000EB7F
:10278000C00202EB001001EB8000E860607840F0CE
:102790000200607013B03846F0BD000070B50C4602
:1027A0000849216005460968C06988472168E869C9
:1027B000496888472068211D42692846BDE8704065
:1027C00010470000746A0200C06911F08EBC00005E
:1027D00010B504A100200BF063FFBDE8104011F01C
:1027E000D7BC0000405F4041616C6572740000001E
:1027F0002DE9F04104262DED028B154604680020DA
:10280000107294F8160A0F4619280AD194F8D404C5
:10281000D4F8B86958B13146204606F0FDFC00B145
:102820000D2694F8160A172801D10120287204F504
:10283000806090EDAE0A85ED030A90EDAD0A85ED5E
:10284000040AB988C5E9006194F8241A89B3002103
:102850002976D0F8B8020026B0F17F5F24DB04F5BA
:10286000006494ED750AD4ED760A30EE600A12F039
:1028700065FD10EE107A94ED740AD4ED750A30EE11
:10288000608AB0EE480A12F059FDB7F1814F0BDCB7
:1028900010EE100A0849884206DBB5EEC08A02260F
:1028A000F1EE10FA00D201266E61BDEC028BBDE89C
:1028B000F081FFE70121CBE70000A04070B504469E
:1028C00000681C2200F2BC400546FFF7BBF8294611
:1028D000E069BDE8704011F05DBC000070B590ED9E
:1028E000010AD1ED030A044630EE200A80ED010A08
:1028F00090ED1F0AD1ED030A30EE200A80ED1F0A89
:10290000FFF714FD13496068884220DD04F11000D0
:102910000821054604F031F82269E16A114404EB0C
:10292000800212698A4200DA07202072204602F0F3
:1029300072FE9FED090A002084ED010A60670C20F9
:10294000E06620212846FFF796F8012070BD0020A0
:1029500070BD000000006E420000000010B50420B1
:102960000EF002FB002010BD024600F5AC6092EDB7
:10297000790A02F50062D0ED000A92ED731A70EE4A
:10298000600A20EE010A31B1032916D0012919D0BD
:1029900002291DD022E0426E292A11DCC26D222AB2
:1029A0000EDA90F87400122801D0152816D110EE16
:1029B000900A0B4A90420FD810E0C06D1E280DDD22
:1029C0000220704710EE100A064A904204DB05E030
:1029D000406C054A904201DD03207047084670476D
:1029E00017D96CC19643033F7DCB044030B58EB000
:1029F0000D4600210091019102910391042104915F
:102A00001521CDE905100D48089000F5A870099032
:102A100054300A9015300B90CDF81CD02A300C9011
:102A2000144604A802F062FF9DF8341021709DE85E
:102A30001E0085E81E000EB030BD000014670200C5
:102A400030B59FB08A8E0DF16C0C4D8F0C8FCB8EF4
:102A50008CE83C008A8D0DF15C0C4D8E0C8ECB8D7C
:102A60008CE83C008A8C0DF14C0C4D8D0C8DCB8C80
:102A70008CE83C008A8B0DF13C0C4D8C0C8CCB8B84
:102A80008CE83C008A8A0DF12C0C4D8B0C8BCB8A88
:102A90008CE83C008A890DF11C0C4D8A0C8ACB898C
:102AA0008CE83C008A880DF10C0C4D890C89CB8890
:102AB0008CE83C004A880988C378CDE9003102924D
:102AC00083780522024910460CF062FD1FB030BD2C
:102AD000EC720200F0B50D490D4E00220C68002189
:102AE00002EB800504EB820301EB850C5F5C16F8BA
:102AF0000CC087EA0C075F54491CC9B20429F3D300
:102B0000521CD2B2042AEAD3F0BD00008C0500208A
:102B1000B0290020F0B589B00446057A00F15007CD
:102B2000002620216846FEF7A6FF386801907868E5
:102B30000290B8680390F868049000EE105A386963
:102B400005907869B8EEC01AF7EE000AB0EE000AF8
:102B5000069012F0CAFC002100B1E16304EB85008D
:102B6000026B521C0263062D0CD0A164012D09D00A
:102B7000072D07D094ED1F0ADFED180A30EE200A6A
:102B800084ED200A006B5DF82510884222DB00EE00
:102B9000105AF7EE000AB8EEC01AB1EE0C0A12F0A5
:102BA000A4FCB8B1A0890126401C80B2A081062DEA
:102BB0000BD194ED1F0AD4ED200AB4EEE00AF1EE39
:102BC00010FA02D20026401EA081202104F130001C
:102BD000FEF751FF09B03046F0BD0000000016447A
:102BE0002DE9F0410E46074603F0ECFD05460024B2
:102BF00008E000BF55F824203146384690470028A9
:102C000006DA641C04F042F8A042F3DC6FF0010025
:102C1000BDE8F08170B5016001F6282104464160ED
:102C200002F082FD61680844A0601848006880478F
:102C3000A168174D0844E06029680D208847E168C5
:102C40000844206129680C20884721690844A06154
:102C500029680E208847A1690844606129680B2013
:102C6000884761690844E0610A4800688047E16973
:102C700008442062084800688047024604F12400A6
:102C8000216ABDE8704009F099B900004869020066
:102C9000686602006C6A0200946A020001490160E1
:102CA000704700003C6A02000020704710B504A184
:102CB00000200BF0F5FCBDE810401AF067B90000E9
:102CC000405F40416F62696B65000000406816F02C
:102CD00069BC406816F03CB891ED200A80ED0D0A01
:102CE00091ED1F0A80ED0E0A91ED2A0A80ED0F0A80
:102CF00091ED220A80ED120A91ED230A80ED110A6E
:102D000091F8903000EE103AB8EE400A80ED100ACB
:102D100091ED160A80ED130A91ED170A80ED140A61
:102D200091ED190A80ED150A91ED180A80ED160A49
:102D300091ED060A80ED060A91ED120A80ED090A6E
:102D400091ED110A80ED080A91ED0D0A80ED070A58
:102D500091ED040A80ED0A0A91ED2E0B80ED020B35
:102D600091ED300B80ED040B91ED0E0A80ED0B0A16
:102D700091ED0F0A80ED0C0A91ED0C0A80ED180A16
:102D800091ED0B0A80ED190A91ED090A80ED170A01
:102D900091ED0A0A80ED1A0A91ED140A80ED1B0AE2
:102DA00091ED150A80ED1C0A91ED130A80ED1D0AC4
:102DB00091ED050A80ED1E0A91ED070A80ED1F0ACC
:102DC00091ED080A80ED200A91ED000A80ED220ABB
:102DD00091ED100A80ED210A083010640C2010706B
:102DE000704770B50568044605F274401022064627
:102DF000FEF728FE2878042805D131466068BDE832
:102E000070401EF041BB70BD00228B5C8354521C8D
:102E1000D2B2102AF9D3704700207047704710B51E
:102E200000681E2100F5D874A01CFEF724FE0021C6
:102E3000217084F8201084F82110A18410BD70B591
:102E40000C46C568FEF754FA6FF40030204404289D
:102E500035D8A86AA04202D1012010F063FD686B4A
:102E6000A04202D1022010F05DFD286CA04202D1E8
:102E7000032010F057FDE86CA04202D1042010F0AE
:102E800051FDA86DA04202D1052010F04BFD686EE7
:102E9000A04202D1062010F045FD286FA04202D1C9
:102EA000072010F03FFDE86FA04202D1082010F08B
:102EB00039FDE869A04202D1002010F033FD002066
:102EC00070BD000001B5BEB03E98006811287DD2EB
:102ED000DFE800F0B8DEFDFCFBFAF9F892F7F6093E
:102EE0007CF5F4F3F2003E9890ED040AB5EEC00ACA
:102EF000F1EE10FA0FD03E9890ED030ABDEEC00A35
:102F000010EE100A012101FA00F0F849096808439F
:102F1000F64908600DE03E9890ED030ABDEEC00A48
:102F200010EE100A01218140F04800688843EF4903
:102F300008603E9800693990FEF7DEFFCDE93C015C
:102F40003E98C0683990FEF7D7FFCDE93A01DDE938
:102F50003C01CDE900013E9890ED030ABDEEC00AA8
:102F600010EE100AE24951F8200039909DED3A0B1D
:102F700053EC102B0146DFA000F0A4FD092017F050
:102F800009F83D90082017F005F83C90072017F04D
:102F900001F83B90062016F0FDFF3A90052016F050
:102FA000F9FF3990042016F0F5FF3890032016F051
:102FB000F1FF3790022016F0EDFF3690012016F059
:102FC000E9FF3590002016F0E5FF00E040E2349084
:102FD000DDE93A23DDE93C10CDE90323CDE9051015
:102FE000DDE937123998CDE900120290CE4834A9B4
:102FF0000EC900F067FD87E33E9800693790FEF741
:103000007BFFCDE93C013E98C0683790FEF774FF26
:10301000CDE93A013E9880683790FEF76DFFCDE923
:103020003801DDE93C01CDE90201DDE93A01CDE9F4
:1030300000019DED380B53EC102BBCA1BEA000F09D
:1030400041FD61E33E9800693790FEF755FFCDE9F9
:103050003C013E98C0683790FEF74EFFCDE93A013B
:103060003E9880683790FEF747FFCDE93801DDE9EB
:103070003C01CDE90201DDE93A01CDE900019DED18
:10308000380B53EC102BB2A1ABA000F01BFD3BE3BF
:103090003E9800693790FEF72FFFCDE93C013E983E
:1030A000C0683790FEF728FFCDE93A013E98806866
:1030B0003790FEF721FF0BE00AE3EDE237E21AE278
:1030C000C7E19FE1EBE082E066E055E044E012E01A
:1030D000CDE93801DDE93C01CDE90201DDE93A0144
:1030E000CDE900019DED380B53EC102B9AA192A075
:1030F00000F0E8FC08E33E9840693590FEF7FCFEDE
:10310000CDE93C013E9800693590FEF7F5FECDE92A
:103110003A013E98C0683590FEF7EEFECDE93801E1
:103120003E9880683590FEF7E7FECDE93601DDE98F
:103130003C01CDE90401DDE93A01CDE90201DDE917
:103140003801CDE900019DED360B53EC102B84A125
:1031500084A000F0B7FCD7E23E9880683B90FEF771
:10316000CBFECDE93C019DED3C0B53EC102B84A133
:1031700085A000F0A7FCC7E23E9880683B90FEF770
:10318000BBFECDE93C019DED3C0B53EC102B81A126
:103190007DA000F097FCB7E23E98C0683990FEF73A
:1031A000ABFECDE93C013E9880683990FEF7A4FE65
:1031B000CDE93A01DDE93C01CDE900019DED3A0B95
:1031C00053EC102B75A178A000F07CFC9CE23E989B
:1031D000806A2B90FEF790FECDE93C013E98406A54
:1031E0002B90FEF789FECDE93A013E98006A2B90BC
:1031F000FEF782FECDE938013E98C0692B90FEF7BC
:103200007BFECDE936013E9880692B90FEF774FE77
:10321000CDE934013E9840692B90FEF76DFECDE973
:1032200032013E9800692B90FEF766FECDE9300131
:103230003E98C0682B90FEF75FFECDE92E013E98C8
:1032400080682B90FEF758FECDE92C01DDE93C01AA
:10325000CDE90E01DDE93A01CDE90C01DDE93801E6
:10326000CDE90A01DDE93601CDE90801DDE93401E6
:10327000CDE90601DDE93201CDE90401DDE93001E6
:10328000CDE90201DDE92E01CDE900019DED2C0B18
:1032900053EC102B48A14AA000F014FC34E23E98F5
:1032A00000693790FEF728FECDE93C013E98C068E2
:1032B0003790FEF721FECDE93A013E9880683790BD
:1032C000FEF71AFECDE93801DDE93C01CDE9020146
:1032D000DDE93A01CDE900019DED380B53EC102BEF
:1032E00046A115A000F0EEFB0EE200002800002031
:1032F000000000207265715F73656E736F722069E4
:103300006E7075745F73656E736F723A20257328E3
:10331000252E3166292C207377697463683A20253D
:103320002E31660A000000008C6F02007365646530
:103330006E7461727900000025733A20252E346680
:103340002C20252E34662C20252E34660A00000001
:10335000616363656C0000006779726F00000000B4
:103360006D61670025733A20252E34662C20252EAA
:1033700034662C20252E34662C252E34660A000057
:103380006261726F0000000025733A20252E3466BA
:103390000A00000074656D700000000068656172CD
:1033A000742072617465000025733A20252E3466FE
:1033B0002C20252E34660A00676E7373000000000F
:1033C00025733A20252E34662C20252E34662C2099
:1033D000252E34662C20252E34662C20252E34668E
:1033E0002C20252E34662C20252E34662C20252ECC
:1033F00034662C20252E34660A0000006F66666253
:103400006F6479003E9800693790FEF775FDCDE94D
:103410003C013E98C0683790FEF76EFDCDE93A0159
:103420003E9880683790FEF767FDCDE93801DDE909
:103430003C01CDE90201DDE93A01CDE900019DED54
:10344000380B53EC102BB2A1AFF2141000F03AFB82
:103450005AE13E98006A2F90FEF74EFDCDE93C01FF
:103460003E98C0692F90FEF747FDCDE93A013E989E
:1034700080692F90FEF740FDCDE938013E98406904
:103480002F90FEF739FDCDE936013E9800692F9067
:10349000FEF732FDCDE934013E98C0682F90FEF76B
:1034A0002BFDCDE932013E9880682F90FEF724FD78
:1034B000CDE93001DDE93C01CDE90A01DDE93A0160
:1034C000CDE90801DDE93801CDE90601DDE9360184
:1034D000CDE90401DDE93401CDE90201DDE9320184
:1034E000CDE900019DED300B53EC102B8CA18EA08B
:1034F00000F0E8FA08E13E98C0683990FEF7FCFC5D
:10350000CDE93C013E9880683990FEF7F5FCCDE9A5
:103510003A01DDE93C01CDE900019DED3A0B53ECA8
:10352000102B8DA1AFF2801000F0CCFAECE03E98A9
:10353000406C1D90FEF7E0FCCDE93C013E98006C2C
:103540001D90FEF7D9FCCDE93A013E98C06B1D9065
:10355000FEF7D2FCCDE938013E98806B1D90FEF756
:10356000CBFCCDE936013E98406B1D90FEF7C4FCC4
:10357000CDE934013E98006B1D90FEF7BDFCCDE90E
:1035800032013E98C06A1D90FEF7B6FCCDE93001CD
:103590003E98806A1D90FEF7AFFCCDE92E013E9863
:1035A000406A1D90FEF7A8FCCDE92C013E98006A08
:1035B0001D90FEF7A1FCCDE92A013E98C0691D903F
:1035C000FEF79AFCCDE928013E9880691D90FEF730
:1035D00093FCCDE926013E9840691D90FEF78CFCD6
:1035E000CDE924013E9800691D90FEF785FCCDE9E8
:1035F00022013E98C0681D90FEF77EFCCDE92001B7
:103600003E9880681D90FEF777FCCDE91E01DDE94C
:103610003C01CDE91C01DDE93A01CDE91A01DDE902
:103620003801CDE91801DDE93601CDE91601DDE902
:103630003401CDE91401DDE93201CDE91201DDE902
:103640003001CDE91001DDE92E01CDE90E01DDE902
:103650002C01CDE90C01DDE92A01CDE90A01DDE902
:103660002801CDE90801DDE92601CDE90601DDE902
:103670002401CDE90401DDE92201CDE90201DDE902
:103680002001CDE900019DED1E0B53EC102B34A160
:10369000374800F017FA37E03E98C0683990FEF7D7
:1036A0002BFCCDE93C013E9880683990FEF724FC64
:1036B000CDE93A01DDE93C01CDE900019DED3A0B90
:1036C00053EC102B2BA1AFF2203000F0FBF91BE0E4
:1036D0003E98C0683990FEF70FFCCDE93C013E985A
:1036E00080683990FEF708FCCDE93A01DDE93C013C
:1036F000CDE900019DED3A0B53EC102B20A1AFF268
:10370000583000F0DFF900BF00BF3FB000BD00003F
:1037100077617463682068616E64757000000000F2
:10372000736C65657000000025733A20252E3466A1
:103730002C20252E34662C20252E34662C20252E78
:1037400034662C20252E34662C20252E34662C2021
:10375000252E34660A0000007368616B6500000066
:103760006163746976697479206F7574707574001B
:10377000EC6F0200616E79206D6F74696F6E0000EE
:103780006E6F206D6F74696F6E00000000211DF078
:10379000A5BA000070B505460120FDF7B3FD78B16C
:1037A000FDF7A6FD0B4A0023FEF7E5F80A4C034699
:1037B0002A460AA0A1691FF087FCA069401CA061ED
:1037C000FDF7C5FD002804D02846BDE870401DF077
:1037D000C9BA70BD40420F00440100205441473D2A
:1037E0004353464920534E282564294D41582825E6
:1037F0006429545328256429000000003EB50025A3
:10380000DDE906148DE832001DF0CEFA3EBD000061
:103810002DE9F041214D686800283CD0002717F0C1
:103820006CFA6868C46933E01DA16068FEF757F957
:1038300038B11FA16068FEF752F910B11FF082FC89
:1038400090B11FF0D7FD060015D0214602F0A3F875
:10385000D8B12146D4F81C80686817F056FA44465F
:1038600030461FF0FFFD13E02146E669686817F057
:103870004CFA34460CE02146E669686817F045FAD0
:1038800034460CA01FF020FC02E0A661E4697F1C16
:10389000002CC9D13846BDE8F081000000030020AB
:1038A000637573746F6D2D647269766572000000C4
:1038B000696E6D00464154414C206572726F7221F1
:1038C0002068775F73656E736F725F696E697420CD
:1038D0006661696C6564000010B5FDF7FEFC0028A8
:1038E00001DD002013E020F099FEFDF701FD0A4AFA
:1038F000D2E90E32C41A71EB0204F2DA181A62EB42
:103900000102064B00211B1A914102DA03480021F3
:1039100010BD114610BD00006002002000CA9A3B95
:103920007CB5364C06462068002865D10120206011
:1039300005F0CEFE01A816F083F80198016A304820
:10394000884701982F4A1C302063002104F10800A9
:1039500005F0FEFD00252B46052229462AA00095EC
:1039600000F044F900231A4619462AA0009500F0F9
:103970003DF900231A46194627A0009500F036F9B4
:10398000FFF746FF01F004FE00F062F91CF05CFD59
:1039900010F09AF9244A0221244810F0F7F823483D
:1039A000234A0221001D10F0F1F82048214A02218B
:1039B000083010F0EBF81D481F4A02210C3010F0BF
:1039C000E5F81A481D4A0221103010F0DFF81748B8
:1039D0001B4A0221143010F0D9F81A4815F04EFE97
:1039E00000214FF400301BF0ECFF00201FF036FBED
:1039F00000201FF03BFBE6607CBD00006002002061
:103A00009D72815BBD0F0000626D693136302D699A
:103A100032630000696E6D00637573746F6D2D64A1
:103A200072697665720000009D3602002C55020016
:103A3000553602006D360200853602003D36020022
:103A40002536020089960100002804D0014638225C
:103A50000148FDF7F7BF7047282900202DE9F047FE
:103A60000EF076F8002504460F480CC8204629467B
:103A70000EF0C6FE06460F46304639461CF008F9E1
:103A80000A4B0CCB10EB020841EB03094FF47A739D
:103A900000204146A1FB03CA09FB03A208FB002149
:103AA0006046BDE8F087000050000020580000206C
:103AB00010B50446214602A009F0F8FF002010BD11
:103AC000257300000FB438B5002405A80090FF212D
:103AD0000748009B049A0AF027F80446002000904B
:103AE0000348FFF7E5FF204638BC5DF814FB0000F3
:103AF000D018002010B5044604B910BD204615F0BA
:103B000021FF00BFF9E700002DE9FF4782B004461E
:103B100017461D460E9E00201649087001203B46A0
:103B200003AA21460090144819F070FE804600BF99
:103B3000104800780028FBD0B8F1000F03D04046B1
:103B400006B0BDE8F08700200A490870DFF8289029
:103B5000824633462A46214609F104001BF0AAFAA0
:103B6000824600BFD04600BF024800780028FBD044
:103B70004046E5E760000020400000202DE9FF41BD
:103B800086B0054614461E46109F142101A8FDF775
:103B900072FF224607A901A8FDF754FF01A90819E1
:103BA0003A463146FDF74EFF00200A490870009062
:103BB0003819C3B201AA2946074819F027FE8046E2
:103BC00000BF044800780028FBD040460AB0BDE89A
:103BD000F0810000600000204000002010B5044685
:103BE00004B90124204618F0B9FF10BD2DE9F043B7
:103BF00087B01F46DDF8389090460D46060006D087
:103C000015F0ACFC28B1012007B0BDE8F08302201C
:103C1000FAE70E4C606810B917F065F8606001961D
:103C2000062D10D05FF00000ADF80800ADF814705C
:103C300003958DF80A80ADF816906946606817F014
:103C40004FF80020E0E70120EEE70000000300202D
:103C50000449002008608860C8600349202088600B
:103C600070470000D826002038030020012109F009
:103C7000FDBD0022AFF300802DE9F74F92462DEDF8
:103C8000028B8AB00C46FDF733FB05460E46012039
:103C9000FDF738FBDFF8A49160B18DE8600423469E
:103CA0004F460C9A0020D9F828101BF091FEB86AF4
:103CB000401CB862002080460990FDF748FB0028B0
:103CC0007DD00C980A280CD006DC10F1640F1DD0B2
:103CD00098B106287ED11AE011284BD0642879D1FA
:103CE00050E0206801286AD155496068086055494C
:103CF000A06808605449E06807E0206801285ED1A8
:103D00005249206908605249606A086062E0206890
:103D1000012854D160684FF0000B10B1012818D071
:103D200058E000201FF09AF9002203214F46D9F8ED
:103D3000080005F029FC0023052219460220CDF8D1
:103D400000B005F083FC00220221B86805F01CFCDD
:103D500040E001201FF082F90021CDE900110A4660
:103D6000CDF808B04FF448430321D9F8080005F016
:103D700027FC2FE02068012859D1D9F8000001283C
:103D800055D027E02068012851D16068C9F80400A7
:103D900010B93221C9F8041024222E496846FDF7D3
:103DA00051FE9FED2D8A0027EB4600BF99ED010AD9
:103DB000B8EEC00A20EE080ABCEEC00A00E036E009
:103DC00010EE102A5BF82700002105F045FC7F1C4F
:103DD000092FEBD321460C980DF08CFD012800D162
:103DE00080462346284631460C9A0DF0B5F9012845
:103DF00000D1804611487030026822B121460C98EB
:103E00009047012802D0B8F1000F10D00120FDF733
:103E100079FA60B18DE8600423464C460C9A012083
:103E2000D9F82C101BF0D4FDE06A401CE062099820
:103E30000AB0BDEC028BBDE8FE8F000060020020DE
:103E40005003002054030020580300204C0300209E
:103E50005C030020085602000000804490ED060A32
:103E60003C4A10EE101AF7EE000A914205DA0021E2
:103E700080F82810C0ED090A704710EE101A364A73
:103E800091420BDA01219FED351ADFED351A80F8EA
:103E9000281030EE411A81EE210A11E010EE101ABE
:103EA000304A914211DA0221DFED2F0A9FED2F1ADD
:103EB00080F8281070EE600A80EE810AF0EE000AA9
:103EC00030EE200A80ED090A704710EE101A284AD9
:103ED00091420DDA0321DFED270A9FED271A80F8C2
:103EE000281030EE600AC0EE010AB0EE080A24E0A5
:103EF00010EE101A214A91420DDA0421DFED200A5A
:103F00009FED201A80F8281070EE600A80EE810A7A
:103F1000F1EE000AD4E710EE101AB1F17E5F0FDA6D
:103F20000521DFED190A9FED191A80F8281030EEEF
:103F3000600AC0EE010AB1EE040A30EE800AC1E761
:103F4000062180F82810B1EE080A80ED090AC0EDBC
:103F5000060A70473D0A173FA4703D3F3D0A173FD0
:103F60009A99193E3D0A573FA4703D3FCDCCCC3DB8
:103F7000AE47613F3D0A573F0AD7233D3333733F76
:103F8000AE47613F295C8F3D3333733FCDCC4C3D11
:103F900070B5D1ED000A90ED252AD0ED271A9FEDDE
:103FA000273A80EE820A30EEE11ADFED230A72EE44
:103FB000611A04460E46C0ED281A2249DFED221A86
:103FC000154610EE100A60EE202ADFED1D0A884229
:103FD00052EE830A01DCB0EE610A11EE101A1B48A2
:103FE00085ED080A814202DAB0EE610A03E094ED41
:103FF000282A81EE020A10EE901A814285ED060A07
:1040000003DB9FED130A60EE801A1046C5ED071A18
:10401000FFF724FFD6ED000A94ED260AF4EEC00A5D
:10402000F1EE10FA07DD80EE801A9FED0A0A21EE0C
:10403000000A85ED050A70BD0000C842A60AC63F09
:10404000B81E66429A99993E00000000BD37863539
:104050000AD7233CCDCC744110B500F5AC642DEDEE
:10406000028B0A21B0F8080AB0EE408AB0FBF1F2E8
:1040700001FB1200A06594ED0F0A17F093FB94ED7D
:10408000140A58B130EE080A84ED140AA06D04EB4E
:10409000800080ED068ABDEC028B10BDDFED180AB2
:1040A00060EE200A94ED100A30EE200A84ED100A2A
:1040B00094ED110A00EEA00A84ED110A94ED120AA3
:1040C000B4EEE00AF1EE10FA01D2C4ED120A94ED5A
:1040D000130AB4EEE00AF1EE10FA01DDC4ED130AA2
:1040E000606D401C6065A06DD4ED140A04EB800087
:1040F00090ED060A38EE400A30EE800AC4E7000070
:10410000CDCCCC3D90ED000A10EE101AB1F1824FEB
:104110001BDD90ED191ADFED0D0A60EE200A80EE2E
:10412000810A10EE101A80ED110AB1F1804F03DA06
:10413000B0EE000A80ED110A10EE101A044A914206
:1041400003DDB3EE0E0A80ED110A70476755854115
:104150000000F0412DE9F0410D462DED048B06469F
:1041600000F5AC645FF0000706EB870101F5006124
:1041700005EB870091ED740AD0ED000A30EE200ABD
:1041800081ED740AD1ED710A90ED000A40EE000A4B
:10419000C1ED710A06EBC70190ED000AD1ED770A77
:1041A000B4EEE00AF1EE10FA01DD81ED770A90ED50
:1041B000000AD1ED760AB4EEE00AF1EE10FA01D26F
:1041C00081ED760A90ED000A11F0B8F804EB870053
:1041D0007F1CD0ED1E0A032F30EE200A80ED1E0A50
:1041E000C2DB95ED008AD5ED028AD4ED020A95ED89
:1041F000019A38EE680A70EE800AC4ED020AD4ED26
:10420000030A40EE000AC4ED030AD4ED040AF4EEFA
:10421000C00AF1EE10FA01DD84ED040A39EE680AF5
:1042200011F08CF8D4ED050A304630EE200A84ED0A
:10423000050AB0EE480AFFF70FFF2546002694ED69
:104240001C0A17F0AFFAF0B995ED1B0AF0EE480A18
:10425000B4EEE00AF1EE10FA06DDD5ED1C0AB4EE7C
:10426000E00AF1EE10FA0DDCF0EE480AB4EEE00AD6
:10427000F1EE10FA07D2D5ED1C0AB4EEE00AF1EE29
:1042800010FA00D2012695ED1B0A85ED1C0AB0EE4E
:10429000480A85ED1B0AA06EB0EE490A3044A066BC
:1042A00011F04CF8B0EE409AB0EE680A11F046F802
:1042B000D4ED210A49EE000AC4ED210A78EE280A5D
:1042C00094ED230A30EE200A84ED230ABDEC048B22
:1042D000BDE8F0812DE9F04391462DED048B85B0CA
:1042E0000E46046891ED020ADFED530A4FF07E5747
:1042F00020EE208A94ED870A30EE080A84ED870AC2
:10430000B4F85402401CA4F8540294F8230A00257F
:1043100068B318EE100AB84229DBBDEEC80AB4F83B
:104320007C13D4ED908A10EE100A94ED919A04F566
:1043300007740E184FF4DE712046FDF79CFB84EDE8
:104340000A9AC4ED098AA4F8606184F87C5018EEDA
:10435000100AFDF7D1FDCDE90001032237A1104677
:104360000BF016F905B0BDEC048BBDE8F08394F8B2
:104370004B34316802AA43B1009202234FF47A729F
:1043800004F527700FF00AFD03E007C902AB83E8CC
:10439000070002A9204600F00BFED4F81C02B84228
:1043A000E0DBC4F84055A846C4F8445504F5077549
:1043B0005FF0000705EB870202F11003298F002050
:1043C000121D02F0EBFA7F1C032FF3DB05F1200333
:1043D000298F1A1F002002F0E1FA284608F0F0FBAE
:1043E0004A463146204608F011FB84F8970204F54E
:1043F000A860C9F8480094ED870A04F58060F7EEDC
:10440000000A80EDAC0A30EE600A84ED870A9FED69
:10441000120AA4F8548284ED8E0A84ED8F0AC4F83F
:104420002082C4F82482C4F82882C4F82C82C4F8FC
:104430003082C4F8348295E7BD378635522F412546
:10444000643A204341532C6C6F77706F7765722C00
:10445000252E3166730A00000000000070B50E467C
:104460002DED048B9EB0054600F1C804DFED6B8A8C
:1044700028226B49B0EE688A6846FDF7E3FA96EDAC
:10448000000AD5ED250A9FED671A60EE810AB4EEA9
:10449000E00AF1EE10FA7DD996ED020A9FED621A5C
:1044A000C0EE010A94ED010A30EE800AF7EE000A30
:1044B00084ED010A94ED0C0A30EE200A10F03EFF64
:1044C00010EE100A594EB04209DA062004EB8001C2
:1044D000401E91ED010A30EE088AF7D51EE05049E2
:1044E00094ED0C9A2822503914A8FDF7ABFA4C49E8
:1044F000282228390AA8FDF7A5FA0A22F0EE680A50
:104500009DED130AB0EE491A0AA914A802F0B2F9F7
:1045100030EE080AD4ED010A30EE808A40492822A4
:10452000A0390AA8FDF78EFA3D492822783914A847
:10453000FDF788FA0A22F0EE680A9DED130AB0EE44
:10454000481A0AA914A802F095F984ED0D0A9DED08
:10455000008ADDED010A95ED081A00EE808ADDED96
:10456000020A00EE818ADDED030A60EE800A00EEA9
:10457000808ADDED040A60EE800A00EE818ADDEDBE
:10458000050A60EE810A00EE818ADDED060A60EE22
:10459000800A00E03BE060EE800A254900EE808A58
:1045A000DDED070A60EE800A60EE800A00EE818A87
:1045B000DDED080A20EE800A20EE010A00EE018AF5
:1045C0009DED090A20EE010A20EE010A00EE018AA3
:1045D00018EE100A884202DBB1EE048A0EE018EEF3
:1045E000100AB04208DBB0EE480A10F0A7FE10EE49
:1045F000100AB0F17E5F01DAB0EE688A94ED080A25
:10460000B4EEC80AF1EE10FA01D284ED088A1EB0A9
:10461000B7EE000ABDEC048B70BD00000000000086
:10462000AC6C02003333333F00007042BD37863537
:104630000000A040B0EE402A9FED140AB4EEC12A5B
:10464000F7EE002AF1EE10FA02D2B0EE620A7047DD
:10465000B4EEE12AF1EE10FAF9DC71EEC11A82EE45
:10466000A11A72EE601AF6EE000A41EEC10A10EECF
:10467000900AB0F17E5F01DDF7EE000AF5EEC00AA8
:10468000F1EE10FAE3D3B0EE600A704700000000CC
:1046900070B5DFED2A0A00F11C042DED048B1546E0
:1046A00091ED020A90ED251A2848C0EE208AD1ED3E
:1046B000000A032180EE810A9FED211A60EE000AB4
:1046C00060EE810A9FED1F1A40EE410A9FED1E0A1F
:1046D00030EE809AB0EE490A02F0DCFA1B48B0EEE8
:1046E000408A05211030B0EE490A02F0D3FAB7EE45
:1046F000001AD4ED000A30EE410A00EE808A9FEDE8
:10470000140A28EE000A20EE280A30EE800A84ED12
:10471000000AD4ED010AB4EEE00AF1EE10FA01DD70
:1047200084ED010A94ED000A85ED0B0A94ED010A6F
:1047300085ED0C0ABDEC048B70BD000000007042DA
:1047400083C0BA3F48E1FA3E0AD7233D746B0200AA
:10475000CDCC4C3F70B50C462DED028B91ED0D0A82
:10476000D2ED020ACD682E4E30EE200A81ED0D0A00
:1047700010EE103A91ED0C0AC96AB3420ADAD2ED92
:10478000000A491C30EE200A84ED0C0AE162BDECFF
:10479000028B70BD00EE901AB8EEE01AC0EE010A6E
:1047A000C4ED0C0A90ED270A90ED281A70EEC00AAD
:1047B00080EE810AD5ED010A20EE800A09F0B8FCEE
:1047C000B7EE008AD5ED000A30EE480A20EE200A46
:1047D000DFED140A84ED000A20EE200A84ED010AC0
:1047E000B1EE400A09F0A4FC78EE400A95ED020A09
:1047F00095ED031A002001EE200A84ED020A94EDE3
:10480000040AD4ED010A30EE200A84ED040A9FED7B
:10481000060A84ED0D0A84ED0C0AE062B7E7000099
:1048200000007042F5499F3B000000002DE9F04771
:1048300090ED0D1AD0ED0E0A90ED0F0A0027B4EEA0
:10484000E01A0C46F1EE10FA0646B8464FF00109A0
:1048500007DDB4EEC01AF1EE10FA02DDC4F8F08004
:1048600019E0F4EEC10AF1EE10FA07DDF4EEC00A29
:10487000F1EE10FA02DDC4F8F0900CE0B4EEC10ADB
:10488000F1EE10FA07DDB4EEE00AF1EE10FA02DD07
:104890000220C4F8F000D4E93C01814201D001219A
:1048A00000E0002184F8F810DFF880A00025C4F8AB
:1048B000F40000BF06EB850104EB850091ED0D0AC5
:1048C000D0ED390A30EE600A80ED360AD1ED0D0ADE
:1048D000C0ED390A10F032FD10EE100A504500DD2F
:1048E0002F446D1C032DE5DB84F8F980012F18DCC3
:1048F00094F8F800A8B9D4F8F000022813D196ED86
:104900000F0A10F01BFD10EE100AB0F1804F0ADD07
:1049100094ED380A10F012FD10EE100AB0F17C5F31
:1049200001DD84F8F990BDE8F08700009A99193FFD
:1049300010B58A78002422B390F8AD27032A20D23C
:104940000A7982F001020A7190F8D73703B1022385
:104950001A430A7190F8D93703B104231A430A7134
:1049600090F8DA3703B108231A430A7100228A70DB
:1049700080F811280B790322012403A110460AF0C4
:1049800007FE204610BD0000522F4125643A204802
:104990004D533320616374697665206D6F646520C3
:1049A00025640A002DE9FF4115461E4607460C46C0
:1049B000401B61EB06013C220023FCF7ABFF5FEAE2
:1049C000000808D501AB009783E87000032204A11A
:1049D00010460AF0DDFD04B04046BDE8F08100005D
:1049E000522F4125643A205343442C256C6C752C7E
:1049F000256C6C750A00000090F850373B2B07D3EC
:104A0000012180F86817032202A110460AF0C0BDF8
:104A100070470000522F4125643A2041525F534CA9
:104A20004545505F46554C4C2C25640090F8631763
:104A300000290DD101780A290AD1012180F86317D4
:104A4000062101700123032202A110460AF0A0BD35
:104A500070470000522F4125643A205374617274EC
:104A6000206E6F74696365206576656E740A000058
:104A700030B5C26801EB4103002002EB830388429A
:104A80000CD000EB400402EB840494F820502DB1CC
:104A9000E469DD69AC4201D1012030BD401C0B2826
:104AA000EDDB002030BD00002DE9F047054600F1A8
:104AB00030044FF00008876B066C894685F80C8837
:104AC00094F85F17404611B184F85F0741E03C203D
:104AD00097FBF0F196FBF0F0081A002801DD0120A9
:104AE00000E0002084F86107B81B10F0F6FCB0F578
:104AF000167F01DD012000E0002080460020012219
:104B000001E0022821D03C2197FBF1F702281ED0BA
:104B10005FF03C0196FBF1F6B74206D095F80C1811
:104B200002FA00F3194385F80C18401C0328E8DB4F
:104B300095F80C38012B04D903220BA110460AF07A
:104B400027FDB8F1000F04D00BE01821DCE7182195
:104B5000E0E7D4E90201C4E90401D9F80000C4F88F
:104B600002004046BDE8F087522F4125643A207488
:104B7000696D65206368616E6765202564000000CB
:104B80002DE9F04F07462DED088B93B00D46D74821
:104B90009FEDD7BA4FF0000A04684FF0010B04F202
:104BA0008C4684F820AA88886188884241D088B2DF
:104BB00000EE100A84F820BAB8EE401ADFEDCD0AF4
:104BC0009FEDCD0A10F091FC84F81E0A1C210CA860
:104BD000FCF751FF30680CA9826938469047D4F839
:104BE000B409FDF789F906460F460C98FDF784F9DC
:104BF000804689460D98FDF77FF9CDE90A670DF1EA
:104C0000080C9DF847609DF846309DF845208CE8DB
:104C1000030306A8B9A180E84C009DF8410000906C
:104C20004FF0FF309DF8403002460AF0B1FCA888F2
:104C3000608095ED020AB5EEC00AF1EE10FA12DDC1
:104C400004F58060B0EE081AD0EDB10A70EE810A6A
:104C50009FEDB71A60EE810AB4EEE00AF1EE10FAA9
:104C600001D2012200E00022286804F52063D0E987
:104C70000C1048CB4B404640334301D0012300E0A9
:104C80000023C4F8001A1A42C4F8040A0AD19FED9E
:104C9000A90A002285ED020A6FF00403A6A11046BE
:104CA0000AF076FC95ED020ADFEDAC0AAC4920EE85
:104CB000200A10EE100A884201DB012000E00020EB
:104CC00084F8230A2868A74E90F88100002804F58C
:104CD000806013D080EDB2BA94F8241A39B9D0F8B4
:104CE000CC12B1F17E5F02DB84F824BA1CE0D0ED77
:104CF000B30A30EE800A80EDB30A22E080EDB3BA49
:104D000094F8241AB9B1D0EDB20A90EDB41AF4EEC9
:104D1000C10AF1EE10FA0EDB0022012392A1104627
:104D20000AF036FC84F824AAB368032204F624218E
:104D30006E48984705E0D0EDB20A30EE800A80ED6B
:104D4000B20A286890ED0A0AFDEEC00A10EE900A39
:104D500098B110EE100A894908448949884205D261
:104D600084F80CB6B4F80C02401C09E000226FF085
:104D70000C0371A110460AF00BFC504684F80CA6F7
:104D8000A4F80C0284F80FA62E6896ED128B51EC55
:104D9000180BFDF792F8002873D096ED149B51EC98
:104DA000190BFDF78AF8002878D09FED76AB51EC0F
:104DB000180B53EC1A2BFCF75DFFFDF77EF804F59A
:104DC0008066074696EDA80B53EC1A2B51EC100B9E
:104DD000FCF750FFFDF771F8874201D1012000E098
:104DE0000020804653EC1A2B51EC190BFCF742FFC4
:104DF000FDF763F896EDAA0B074653EC1A2B51EC1E
:104E0000100BFCF737FFFDF758F8874201D101205E
:104E100000E0002018EA000F40D19FED5C0B51EC40
:104E2000180B53EC102BFDF77BF823D3286890ED7B
:104E3000120B9FED581B51EC100B53EC112BFDF78F
:104E400087F817D3286890ED140B9FED541B51EC95
:104E5000100B53EC112BFDF763F80BD3286890ED82
:104E6000140B9FED501B51EC100B53EC112BFDF765
:104E70006FF807D200226FF00E032FA110460AF040
:104E800087FB0BE084F80FB6286890ED120B86EDD7
:104E9000A80B286890ED140B86EDAA0B286890EDFE
:104EA0000E0ABDEEC00A10EE100A00B1012084F80F
:104EB0000E06002814D028683C4A816B1144B1F1D9
:104EC000B67F0DD980ED0EBA13B00022BDEC088B71
:104ED0006FF00F0318A11046BDE8F04F0AF058BB61
:104EE00013B0BDEC088BBDE8F08F0000CC2B002088
:104EF0000000000000C8DA450028DB45522F41259C
:104F0000643A20673A256420613A256420683A258E
:104F10006620773A25662062633A25642068723AF3
:104F20002564206C633A2564206D73733A2566000E
:104F30000024744900401C47522F4125643A204107
:104F4000525F4552524F525F494E56414C49445F61
:104F5000444154413A20256400000000BD378635A5
:104F600077BE7F3F68660200522F4125643A204198
:104F7000525F554E544F554348000000FFFF69BC37
:104F8000FF3F06010000000080842E410000000069
:104F9000008056C000000000008056400000000065
:104FA000008066C00000000000806640000010BE67
:104FB00070B590ED880AD1ED000A04460D4630EE3A
:104FC000200A80ED880A90ED890AD1ED010A30EEC1
:104FD000200A80ED890A90ED8A0AD1ED020A30EEAE
:104FE000200A80ED8A0AD0ED8B0A91ED000A40EE8E
:104FF000000AC4ED8B0AD4ED8C0A95ED010A40EE4F
:10500000000AC4ED8C0AD4ED8D0A95ED020A40EE3B
:10501000000AC4ED8D0A95ED000AD5ED010A20EED7
:10502000000A00EEA00AD5ED020A00EEA00A12F076
:10503000DDFCD4ED8E0A30EE200A84ED8E0A95ED6B
:10504000000AD5ED010A20EE000A00EEA00AD5ED17
:10505000020A00EEA00AD4ED8F0A30EE200A84ED99
:105060008F0A70BD3EB5044600200090019002906A
:105070000D4691ED000A10F061F98DED000A95EDF5
:10508000010A10F05BF98DED010A95ED020A10F0AE
:1050900055F98DED020A164B03220421684601F0F2
:1050A00051FC024613482946836904F5A9609847D4
:1050B00029462046FFF74EF894F80E06002816D031
:1050C00094F83C05401C84F83C0504F58064D5ED5B
:1050D0000E0A94ED4D0A30EE200A84ED4D0AD4ED0F
:1050E0004E0A95ED0E0A40EE000AC4ED4E0A3EBD92
:1050F000F95000000C69020090ED000AD1ED000AA1
:10510000B4EEE00AF1EE10FA01DD01207047002054
:10511000704700780978884201D901207047002043
:10512000704700002DE9FF478846D1F8221003910F
:105130004FF0000A80F8A8A79DF90D509DF90F7057
:105140009DF90E608DE8E0009DF90C408146032238
:10515000234649A110460AF01BFA6019F1190844C8
:10516000002874DD012189F8A8170846534603A9D1
:105170000A5C182A00D10B540C180A5614F9014C79
:10518000121B07D5024603E08C5C18348C54521C69
:10519000042AF9DB401C0428EADB9DF90D0000EE2F
:1051A000100A9DF90C00B8EEC01A411C00EE101A4E
:1051B0001530F8EEC00A00EE100AB8EEC00A10F082
:1051C00094F910B19DF90D0002E09DF90C00093031
:1051D00040B28DF80D009DF90E10401C00EE101A23
:1051E000B8EEC01A00EE100A9DF90C00F8EEC00AE5
:1051F000163000EE100AB8EEC00A10F076F910B1C1
:105200009DF90E0002E09DF90D00401D40B28DF8A1
:105210000E009DF90F10401C00EE101AB8EEC01AD7
:1052200000EE100A9DF90C00F8EEC00A173000EEEF
:10523000100AB8EEC00A10F058F918B19DF90F0025
:1052400003E004E09DF90E00801C8DF80F00039927
:10525000C8F822109DF90D009DF90F209DF90E1040
:105260008DE8070003229DF90C300AA110460AF0D0
:105270008FF9BDE8FF870000522F4125643A205383
:1052800043434D5F303A72616E676525642564253E
:1052900064256400522F4125643A205343434D5FF7
:1052A000313A72616E676525642564256425640062
:1052B0007CB50C4605460B780C2206213C200EF0EE
:1052C000EFFD68830122637811460A200EF0E8FDA5
:1052D00028840022A37811460A200EF0E1FDA8835D
:1052E000E0784FF46162C0EB001083004FF49661E8
:1052F00090000EF0D5FD288320794FF49672C0EB14
:10530000001083003C2150000EF0CAFDE883637951
:10531000092206210F200EF0C3FD688461782078F1
:10532000CDE900010322E37802A110460AF030F92A
:105330007CBD0000522F4125643A20534343535F04
:10534000313A25642C25642C2564000070B5A4B086
:105350000C46054620222D4904A8FCF773FB2B4977
:10536000202220310CA8FCF76DFB28492022403177
:1053700014A8FCF767FB2549202260311CA8FCF724
:1053800061FB04220121072063680EF089FD0646B7
:10539000042201210720A3680EF082FD21685A290A
:1053A00031D00A2185F83011E16804AA02EB8101AD
:1053B000404291ED000A0CA901EB860185ED4A0AF5
:1053C00091ED000A14A985ED4B0A11F8261085F815
:1053D00031111CA900EB800011F8261085F832115C
:1053E0003C3085F83301221D237C07CA0DF1040CE3
:1053F00000938CE80700032205A1104623680AF0F9
:10540000C7F824B070BD1E21CCE70000146D020067
:10541000522F4125643A20534343535F323A256467
:105420002C25642C25642C25642C256400000000A8
:105430002DE9F041044690F876000321470800F07A
:10544000010504F110000EF08FFBF1EE000A20EED2
:10545000200ABCEEC00A10EE100A86B228004FF0F7
:10546000000502D104EB4700458704EB4700418F5C
:1054700031444187B4F8A40005213044A4F8A400C5
:10548000B4F8A6003044A4F8A60094F87600B0FB67
:10549000F1F201FB1200042820D194F8790004EB0A
:1054A0004000B0F8A470206BB84203DB3946606B53
:1054B00010F017F860633946206B10F012F8C4F84A
:1054C000BC70206394F8790004EB4000A0F8A4506D
:1054D00094F8790018B3002084F8790094F87600E5
:1054E0003B2819D394F87710208E04EB4101A1F8E2
:1054F000A80094F87D0094F8771004EB800004EB8A
:105500004101008EA1F8DC0084F87D5025636563BD
:10551000C4F8A45084F879503046BDE8F0810120E9
:10552000DAE70000014901607047000048660200A8
:1055300010B5074A01248C40135CA34313540A4658
:1055400001460448006804F01FF8002010BD000068
:105550005826002000030020FEB508AB0A4D93E852
:10556000D0002B5C4FF0010C0CFA01FC43EA0C0359
:105570002B5413460A46014604488DE8D0000068C3
:1055800004F01EF80020FEBD582600200003002075
:1055900010B580210448FCF76EFABDE81040034ABC
:1055A0000021034803F0D4BF582600209D110000BD
:1055B00000030020FEB500230A46054600F1300432
:1055C000009301930293D2E9020150EA01060AD046
:1055D000C4E902016A46FBF790F800BFBDF8060077
:1055E00085F80A08FEBD40F2B470ADF800001078EE
:1055F000ADF802005078ADF804009078ADF80600E0
:10560000D078ADF80800ADF80A3068461DF084FF88
:10561000C4E90201E2E72DE9F041017A0A2600F12E
:10562000840401292FD121680A292CDC0025282790
:1056300022692146012001EB80031B69934201DDB1
:105640001A460546401C0328F5DBBA4201DC2068F7
:1056500007E001EB85004268521C42600868401C6C
:105660002060B0420FD10321201D01F086F9E061D6
:105670002168491C2160012184F8201018B92046B6
:105680002421FCF7F8F9002020616061A061BDE8E9
:10569000F081000070B5044600F5AC659FED1E1A60
:1056A000A1F54070F7EE001AE93803D0DFED1B1AC0
:1056B0009FED1B1A04F50060192690ED6D2A22EE6D
:1056C000011AB4EEE01AF1EE10FA01DD162007E03F
:1056D00022EE211AB4EEE01AF1EE10FA13DD1720D3
:1056E00084F8160A10EE900A0E4988420ADD204618
:1056F00000F0A8FC286E022808DDD4F80806401C3B
:10570000C4F8080670BD84F8166A70BD84F8166A7D
:10571000012084F8DC0970BDCDCCCC3E9A99193FAC
:105720009A99993E6666263F30B585B000251421CA
:105730006846FCF7A0F912480068804700901148BD
:1057400000688047019010480068804702900F4829
:105750000068804703900E480068804704900098D6
:105760000124694651F82420824201DD1046254675
:10577000641C052CF6DB51F8250005B030BD000097
:105780000C6902002C6A0200646A0200346A02009A
:105790009C6A020010B500F58062244B92EDCA0AA3
:1057A00010EE104A9C422BDDD1ED0B0A30EE200AA0
:1057B00082EDCA0AB0F8444791F847300BB191F82E
:1057C0004E3023449BB2A0F8443790F85C4734B97C
:1057D00090F83341A34202D9012380F85C3710EEE0
:1057E000103A134CA3420ADD91F84E100A2906D252
:1057F00000219FED100A82EDCA0A80F85C1710BDE7
:1058000091F84740002CFAD010EE104A9C42F6DC8A
:1058100091F84E300A2BF2D991ED0B0A82EDCA0AAB
:1058200091F84E10A0F8441710BD0000BD37863522
:10583000000096430000000030B58FB005460024FC
:105840001C216846FCF717F91C22264907A8FCF71B
:10585000F9F8002005EB8001C968091F132927D238
:10586000DFE801F00A0E0E0E0E12161A2626262664
:105870002626262626221E000099491C009118E0A3
:105880000199491C019114E00299491C029110E010
:105890000399491C03910CE00499491C049108E008
:1058A0000599491C059104E00699491C069100E000
:1058B000641C401C0328CDDB0B4B072201216846EA
:1058C00001F040F85DF82010012907D0032C07D023
:1058D00030B107A951F820000FB030BD022CF7D02D
:1058E000E868F9E72C66020013510000F0B50121C9
:1058F00000244B1FCE1EDFED260A8F1E45681CE0DC
:10590000D0F818E0D0F808C01EF8022003EB82029D
:10591000624403EB810C92ED000A4269624492ED0D
:10592000001AC269B4EEC10AF1EE10FA02D206EB17
:10593000410101E007EB4101515C8D4207DBD0F8EA
:1059400020C04A1E1CF802C0BCF1000FD8D180F85C
:105950002410002216E04568066905FB021503EBDA
:105960008505354495ED000AC568B4EEE00A05EBFF
:105970008205F1EE10FA85ED000A02DD1446F0EE24
:10598000400A521C05689542E5DC2046F0BD000047
:10599000FFFF7FFF704770B505460C46486814F05E
:1059A00097F9020004D0214628469047002801DAE2
:1059B0006FF0010070BD0000F0B504468DB00E46DA
:1059C000154610461EF088FF00287CD131466846F7
:1059D0001FF033F96A46214606A81FF022F96946EE
:1059E00008461FF02AF931462A4608461FF019F9E1
:1059F000294608461FF021F92146344B2A4608461D
:105A00001EF0C0FF2A461146304B08461EF0BAFF72
:105A10002A462E4B214610461FF01BF921462A46E6
:105A200008461FF0FEF82246284B114628461EF075
:105A3000A9FF2146254B2A4608461EF0A3FF002158
:105A400020461FF060FA08430DD021461F4A084641
:105A50001EF0F0FE074620461FF088F9626942EA10
:105A6000C772626102E020461FF080F92146284695
:105A70001FF0E3F82946154B06AA08461FF0E9F87F
:105A80002946124B06AA08461FF0E3F806A90F4B59
:105A90002A4608461FF0DDF8214606AA08461FF0F0
:105AA000C0F86A46094B214610461FF0D2F8294635
:105AB00020461FF077F9314628461FF073F96946F2
:105AC00030461FF06FF90DB0F0BD000098050020C2
:105AD0001FB50023026800930193029303930B68A0
